:020000040800F2
:1000000000500020414D0008954D0008994D000812
:100010009D4D0008A14D0008A54D000800000000FE
:10002000000000000000000000000000A94D0008D2
:10003000AD4D000800000000B14D0008B54D0008AE
:10004000914D0008914D0008914D00088D3A00082F
:10005000914D0008914D0008B11D0008C91D000810
:10006000E11D0008914D0008914D0008914D0008D8
:10007000914D0008914D0008914D0008914D0008E8
:100080002925000881200008914D0008914D0008A5
:10009000914D0008914D0008914D0008891E0008FF
:1000A000914D0008914D0008914D0008914D0008B8
:1000B000914D0008914D0008FD340008914D000855
:1000C000914D0008914D0008914D0008914D000898
:1000D000914D0008914D0008914D0008153400081D
:1000E000F91D0008914D0008914D00080000000026
:1000F0000000000000000000000000000000000000
:0C01000000000000000000005FF808F1A3
:10010C0010B5054C237833B9044B13B10448AFF345
:10011C0000800123237010BDF801002000000000B6
:10012C005850000808B5034B1BB103490348AFF303
:10013C00008008BD00000000FC01002058500008A1
:10014C000122014B9A707047440400200122014B9C
:10015C00DA707047440400200122014B1A7070477A
:10016C004404002008B5034801F02AFD0122024B8B
:10017C005A7008BD220500204404002000B583B04D
:10018C0000230093044B01221146642003F076FDFA
:10019C0003B05DF804FB00BF7101000800B583B02B
:1001AC000023064A93700093054B012211460A2046
:1001BC0003F064FD03B05DF804FB00BF44040020B1
:1001CC004D01000800B583B00023064AD37000939C
:1001DC00054B01221146104603F050FD03B05DF8AB
:1001EC0004FB00BF440400205901000800B583B093
:1001FC000023064A13700093054B012211464FF45D
:10020C007A7003F03BFD03B05DF804FB440400205E
:10021C0065010008704700BF704700BF704700BF02
:10022C00704700BF704700BF704700BF08B5094B4F
:10023C001B7803EB8303DA00074B9B584BB19847B1
:10024C0004490B7803EB8303DA00034B1A4413794C
:10025C000B7008BD140200200000002008B50A4BEA
:10026C001B7803EB8303DA00084B1A4413694BB178
:10027C00984705490B7803EB8303DA00034B1A44C8
:10028C00137D0B7008BD00BF14020020000000207D
:10029C0008B50A4B1B7803EB8303DA00084B1A44AE
:1002AC0093694BB1984705490B7803EB8303DA004C
:1002BC00034B1A44137F0B7008BD00BF14020020BF
:1002CC000000002008B50A4B1B7803EB8303DA000F
:1002DC00084B1A44136A53B1984705490B7803EB42
:1002EC008303DA00034B1A4492F824300B7008BDD8
:1002FC001402002000000020014B23F8101070475E
:10030C001802002000B583B0002000904FF4165363
:10031C000246032102F036FD02F090FD03B05DF8B9
:10032C0004FB00BF38B572B68D4CE18A0020FFF794
:10033C00E3FF218B0120FFF7DFFF618B0220FFF72A
:10034C00DBFFA18B0320FFF7D7FF864D6968C1F354
:10035C0080110A20FFF7D0FF6968C1F3C0110B2090
:10036C00FFF7CAFF6968C1F380210C20FFF7C4FFB7
:10037C0094F821100D20FFF7BFFF94F821100E20E8
:10038C00FFF7BAFF94F821100F20FFF7B5FF94F890
:10039C0021101020FFF7B0FF94F821101120FFF767
:1003AC00ABFF94F826101C20FFF7A6FF6E4C4021E3
:1003BC00204603F007FFB0FA80F149091220FFF73D
:1003CC009BFF4021204603F0FDFEB0FA80F1490965
:1003DC001320FFF791FF8021204603F0F3FEB0FAC3
:1003EC0080F149091420FFF787FF8021204603F094
:1003FC00E9FEB0FA80F149091520FFF77DFF0421D1
:10040C00204603F0DFFE81B21620FFF775FF0421B2
:10041C00204603F0D7FE81B21720FFF76DFF0421B1
:10042C00204603F0CFFE81B21820FFF765FF0421B0
:10043C00204603F0C7FE81B21920FFF75DFF0221B1
:10044C00204603F0BFFE81B21A20FFF755FF0121B1
:10045C00204603F0B7FE81B21B20FFF74DFFE98861
:10046C001E20FFF749FFA9881F20FFF745FF3F4CCF
:10047C0021784720FFF740FF61784820FFF73CFFC9
:10048C00A1784920FFF738FFE1784A20FFF734FFC5
:10049C0021794B20FFF730FFE1884C20FFF72CFF30
:1004AC00334CA1784D20FFF727FF61784E20FFF7E2
:1004BC0023FF21784F20FFF71FFF2E4AB2F864105C
:1004CC0089B22D4B1980B2F8661089B25980B2F8F6
:1004DC00681089B29980B2F86A1089B2D980B2F8E2
:1004EC006C1089B21981B2F86E1089B25981B2F8C8
:1004FC00701089B29981B2F8721089B2D981B2F8B0
:10050C00741089B21982B2F8761089B25982B2F895
:10051C00781089B29982B2F87A1089B2D982B2F87D
:10052C007C1089B21983B2F87E1089B2D961B2F805
:10053C00801089B21962B2F8821089B25962B2F88D
:10054C008410C9B283F82810B2F88610C9B283F8A7
:10055C002910B2F8882092B2DA6262B638BD00BFB8
:10056C000C0500200405002000080140A804002010
:10057C0090040020180200204C04002072B6154B89
:10058C00B3F84810144A1180B3F84A105180B3F8EC
:10059C004C109180B3F84E10D180B3F850101181EB
:1005AC00B3F852105181B3F854109181B3F856102E
:1005BC00D181B3F858101182B3F85A105182B3F8A4
:1005CC005C109182B3F88A30DBB2044A137062B6C5
:1005DC00704700BF180200200C0500204A040020C0
:1005EC0010B5A44B1988A44B1B889BB203EB830357
:1005FC005A0091420BD0A04B1B889BB203EB830398
:10060C00590089B29B4B1980012002F0F5F8994BE7
:10061C005988994B5B889BB203EB83035A00914238
:10062C000BD0954B5B889BB203EB8303590089B2CB
:10063C00904B5980032002F0DFF88E4B19898E4BBA
:10064C001B899BB203EB83035A0091420BD08A4B5C
:10065C001B899BB203EB8303590089B2854B19812B
:10066C00092002F0C9F8834B9988834B9B889BB275
:10067C0003EB83035A0091420BD07F4B9B889BB2B8
:10068C0003EB8303590089B27A4B9980052002F061
:10069C00B3F8784B5A89784B5B899BB29A4207D056
:1006AC00754B598989B2734B59811D2002F0A4F8FE
:1006BC00704B9A89704B9B899BB29A4207D06E4BB8
:1006CC00998989B26B4B9981212002F095F8694B7D
:1006DC00DA89694BDB899BB29A4207D0664BD98980
:1006EC0089B2644BD981172002F086F8614B1A8AC3
:1006FC00614B1B8A9BB29A4207D05F4B198A89B215
:10070C005C4B19821B2002F077F85A4B5A8A5A4BD1
:10071C005B8A9BB29A4207D0574B598A89B2554B88
:10072C005982112002F068F8524B9A8A524B9B8ADC
:10073C009BB29A4207D0504B998A89B24D4B998201
:10074C00132002F059F84B4BDA8A4B4BDB8A9BB2E5
:10075C009A4207D0484BD98A89B2464BD982152088
:10076C0002F04AF8434B1A8B434B1B8B9BB29A42B9
:10077C0007D0414B198B89B23E4B1983192002F0DB
:10078C003BF83C4BDA693C4BDB699A4218D03A4B4C
:10079C00DB69384AD3613949A1FB0321CC0A4FF4F8
:1007AC00616202FB1434C1F3C7210B2002F034F850
:1007BC003349A1FB0431C1F347110C2002F02CF892
:1007CC002C4B1A6A2C4B1B6A9A4218D02A4B1B6A68
:1007DC00284A13622949A1FB0321CC0A4FF4616218
:1007EC0002FB1434C1F3C7211F2002F015F8244971
:1007FC00A1FB0431C1F34711202002F00DF81D4B71
:10080C005A6A1D4B5B6A9A4218D01B4B5B6A194A99
:10081C0053621A49A1FB0321CC0A4FF4616202FB1B
:10082C001434C1F3C721232001F0F6FF1449A1FBB6
:10083C000431C1F34711242001F0EEFF0D4B93F866
:10084C0028200D4B93F82830DBB29A4209D00A4B82
:10085C0093F82810C9B2074B83F828100E2001F02A
:10086C00DBFF044B93F82920034B93F82930DBB2C0
:10087C009A4207E0C00400204C040020C5B3A291AA
:10088C008988888809D0054B93F82910C9B2044B84
:10089C0083F829100D2001F0BFFF10BD4C0400207F
:1008AC00C00400200120704730B449F64044A142F6
:1008BC0034D9551849F69144A54231DCA1F51C41B7
:1008CC0041398BB1012B25D02CE0184D35F8114056
:1008DC00C4F30724034603F8024B35F81140447067
:1008EC000131013A92B21846002AEED100201AE0EA
:1008FC00034613F8025B2D020C4C24F8115045787A
:10090C0034F8110080B2284324F811000131013A67
:10091C0092B21846002AEBD1002004E0012002E03C
:10092C00012000E0002030BC704700BF18020020FE
:10093C00012070470120704708B5024802F060FEA4
:10094C0008BD00BFA8040020174B9B7843BB164B77
:10095C003B229A705B78FBB9134B5A701B78BBB96E
:10096C0010B5124B9B7A012B03D100220F4B9A72BC
:10097C0002E001220D4B9A720B2001F027FF0A4C6A
:10098C0020700C2001F022FF60700023A37010BDBA
:10099C00013B054A13707047013B034A5370704783
:1009AC00013B014A9370704790040020B004002072
:1009BC000C4B5B79012B13D10B4B5B796BB90A4B4D
:1009CC003B225A711B7923B9064A5371064A53715B
:1009DC007047013B044A13717047013B024A537143
:1009EC00704700BFB0040020900400200C4B9B7992
:1009FC00012B13D10B4B1B7A6BB90A4B3B221A728E
:100A0C00DB7923B9064A9371064A13727047013B8E
:100A1C00044AD3717047013B024A1372704700BFFE
:100A2C00B00400209004002038B5134B1B79012B27
:100A3C0020D1124B9B7BD3B9104B3B229A735B7B1F
:100A4C008BB90E4B5A731B7BA3B900250A4B1D7136
:100A5C000F2001F0BBFE094C2073102001F0B6FEF4
:100A6C006073A57338BD013B044A537338BD013B19
:100A7C00024A937338BD00BFB004002090040020DC
:100A8C000D4B1B7A012B16D10C4BDB7A83B90B4B1C
:100A9C003B22DA729B7A3BB9074B00221A72074948
:100AAC00CA7201225A727047013B044A9372704712
:100ABC00013B024AD3727047B0040020900400201E
:100ACC000C4B9B78012B13D10B4B1B7D6BB90A4B39
:100ADC003B221A75DB7C23B9064A9370064A1375C0
:100AEC007047013B044AD3747047013B024A1375AB
:100AFC00704700BFB0040020900400200F4BDB7A3D
:100B0C00012B1AD10D4B1B7B9BB90C4B0022DA72BB
:100B1C00DA701B798BB910B50122084B1A711020B1
:100B2C0001F054FE064C20730F2001F04FFE607351
:100B3C0010BD013B014A137370477047B00400208D
:100B4C009004002038B50446264D0221284603F0B7
:100B5C0031FBB0FA80F04009E0700221284603F026
:100B6C0029FBB0FA80F0400920710221284603F0DD
:100B7C0021FBB0FA80F0400960710221284603F095
:100B8C0019FBB0FA80F04009A0710221284603F04D
:100B9C0011FBB0FA80F04009E0710821284603F0FF
:100BAC0009FB20701021284603F004FBA0700121E2
:100BBC00284603F0FFFA60700421284603F0FAFA85
:100BCC00B0FA80F040092072A5F500650221284694
:100BDC0003F0F8FA60740121284603F0F3FAA074CC
:100BEC0038BD00BF0010014008B5194B1B78012B14
:100BFC002CD1184B1B78032B09D9002000F00EFFC9
:100C0C00012000F00BFF0022124B1A7002E001339E
:100C1C00104A1370FFF790FE0F48FFF793FF00F098
:100C2C001DF800F0F7F8FFF7FFFEFFF78DFEFFF75A
:100C3C00BFFEFFF7DBFE00F0A5F9FFF741FFFFF762
:100C4C001FFFFFF75BFF0022014B1A7008BD00BFAE
:100C5C00440400208C0400202A0500206A4B1B88C9
:100C6C006A4A9289934209D96949496811F4006F1B
:100C7C0004D141F40061664A51600AE0934208D203
:100C8C00634A526812F4006F03D022F40062604988
:100C9C004A605E4A5289934209D25D49496811F40F
:100CAC00805F04D141F48051594B59600AE0934262
:100CBC0008D9574B5B6813F4805F03D023F480533F
:100CCC00534A5360504B5A88504BDB899A4209D295
:100CDC004F49496811F4804F04D141F480414C4B89
:100CEC0059600AE09A4208D9494B5B6813F4804F6B
:100CFC0003D023F48043464A5360434B9A89434BB9
:100D0C001B8B9A4209D24249496811F4004F04D115
:100D1C0041F400413E4B59600AE09A4208D93C4BE1
:100D2C005B6813F4004F03D023F40043384A53603C
:100D3C00354B9A88354B1B8A9A4209D234494968FB
:100D4C0011F4803F04D141F48031314B59600AE0F9
:100D5C009A4208D92E4B5B6813F4803F03D023F4DE
:100D6C0080332B4A5360284BDA88284B5B8A9A4293
:100D7C0009D22749496811F4003F04D141F40031EC
:100D8C00234B59600AE09A4208D9214B5B6813F453
:100D9C00003F03D023F400331D4A53601A4B5A8989
:100DAC001A4BDB8A9A4209D21949496811F4802FEF
:100DBC0004D141F48021164B59600AE09A4208D9BB
:100DCC00134B5B6813F4802F03D023F48023104A59
:100DDC0053600D4B1A890D4B9B8A9A4208D20C49D1
:100DEC00496811F4002F03D141F4002108484160F7
:100DFC009A4208D9064B5B6813F4002F03D023F4F6
:100E0C000023034A536070470C050020C0040020E7
:100E1C0004050020574B9A7F574B5B68C3F3801136
:100E2C008A4217D122B943F0400353494B6003E087
:100E3C0023F0400350494B604AB906224E4B1A70BE
:100E4C004E4BDA6A4E4B1A730122DA7202E001221F
:100E5C00494B1A70474BDA7F474B5B68C3F3C011A1
:100E6C008A4217D122B943F0800343494B6003E017
:100E7C0023F0800340494B604AB906223E4B1A705E
:100E8C003E4BDA6A3E4B1A730122DA7202E00122FF
:100E9C00394B1A70374B93F8212022B95B8C13B95C
:100EAC00344B9B8C8BB1344B5B6813F4807F0CD12F
:100EBC00314A0621117043F4807353602F4BDA6A68
:100ECC002F4B1A730122DA7211E082B9294B5B8C19
:100EDC006BB9284B9B8C53B9274B5B6813F4807F01
:100EEC0005D023F48073244A536001231370214BE3
:100EFC0093F82620204B5B68C3F340218A4217D01D
:100F0C0022B143F400731C494B6003E023F40073DB
:100F1C0019494B604AB10622174B1A70174BDA6A03
:100F2C00174B1A730122DA7202E00122124B1A706B
:100F3C00104B93F82020104B5B68C3F380218A423E
:100F4C0017D022B143F480630B494B6003E023F4C8
:100F5C00806309494B604AB10622074B1A70074B54
:100F6C00DA6A074B1A730122DA7270470122024BBC
:100F7C001A7070470C05002004050020C0040020E6
:100F8C00B00400204A4B1B8B4A4AD28893420BD2A6
:100F9C004949496811F0100F06D141F01001464B38
:100FAC00596006221A70704793420BD9424A526814
:100FBC0012F0100F06D022F010023F4B5A600122A3
:100FCC001A7070473B4A128993420BD93A494968C7
:100FDC0011F0200F06D141F02001374B5960062249
:100FEC001A70704793420BD2334B5B6813F0200F8F
:100FFC0006D023F02003304A53600123137070474E
:10100C002B4BDB8A2B4A128893420BD22A49496814
:10101C0011F0040F06D141F00401274B5960062250
:10102C001A70704793421AD3224A5288934216D8A8
:10103C00214B5B6813F0040F05D023F004031E4A08
:10104C005360012313701C4B5B6813F0020F2ED0FE
:10105C0023F00203184A5360012313707047154A9A
:10106C005288934218D9134A9288934214D8124B3F
:10107C005B6813F0020F05D143F002030E4A536074
:10108C00062313700C4B5B6813F0080F0FD023F082
:10109C000803094A53607047074B5B6813F0080F4D
:1010AC0005D143F00803044A5360062313707047BC
:1010BC000C050020C0040020040500201D4B5B68BB
:1010CC0013F0400F1FD113F0800F1ED113F4807F4B
:1010DC001DD113F4007F1CD113F4806F1BD113F0BE
:1010EC00100F1AD113F0200F19D113F4804F18D10F
:1010FC0013F0020F17D113F0040F16D113F0080FD1
:10110C0015D0012070470120704701207047012045
:10111C007047012070470120704701207047012063
:10112C007047012070470120704701207047002054
:10113C00704700BF040500200E4B5B6813F0400F96
:10114C000DD113F0800F0CD113F4807F0BD113F45D
:10115C00007F0AD113F4806F09D001207047012061
:10116C007047012070470120704701207047002014
:10117C00704700BF04050020F8B5BD4B5B6813F049
:10118C00400F02D113F0800F28D0BA4C40212046DA
:10119C0003F020F84FF48061B74803F01BF880216E
:1011AC00204603F017F84FF40041204603F012F8E4
:1011BC00B24D00262E706E700421204603F00CF800
:1011CC000821204603F008F81021204603F004F80B
:1011DC002021204603F000F8AE70E1E2A84BDB8A38
:1011EC00A84A128893426BD2A44B5B79012B0DD188
:1011FC00A24B1B78012B09D140219E4802F0ECFF39
:10120C004FF480619C4802F0E7FF0BE040219948C5
:10121C0002F0E0FF4FF48061974802F0DBFF002200
:10122C00964B1A70954B9B79012B0ED1934B5B7897
:10123C00012B0AD18F4C8021204602F0CDFF4FF4B8
:10124C000041204602F0C8FF0CE08A4C8021204669
:10125C0002F0C0FF4FF40041204602F0BBFF002219
:10126C00864B5A70854BDB79012B14D1834B9B78C1
:10127C008BB1804C0421204602F0ACFF08212046A3
:10128C0002F0A8FF1021204602F0A4FF20212046E6
:10129C0002F0A0FF84E2774C0421204602F09CFF70
:1012AC000821204602F098FF1021204602F094FFFE
:1012BC002021204602F090FF0022704B9A706FE2C2
:1012CC009342C0F0FC806F4A5288934200F2F78040
:1012DC006A4B9B7A012B5AD1684B5B79012B0DD150
:1012EC00664B1B78012B09D14021624802F074FF38
:1012FC004FF48061604802F06FFF0BE040215D48C5
:10130C0002F068FF4FF480615B4802F063FF00223B
:10131C005A4B1A70594B9B795BBB584B5B7843BB50
:10132C00584E336A584DA5FB0324E40A4FF461620E
:10133C0002FB14344F4F8021384602F04DFF4FF41E
:10134C000041384602F048FF4C4B01225A709A710A
:10135C00336AA5FB0323DB0A4C498B714C4BA3FB73
:10136C0004235B09CB71C3EB03139A00A21A0A7214
:10137C0064E0404C8021204602F02EFF4FF40041E7
:10138C00204602F029FF01223C4B5A7056E03B4BA1
:10139C005B793BBB394B1B7823BB4021354802F0B2
:1013AC001BFF4FF48061344802F016FF334B0122CF
:1013BC001A705A71334B1A6A334BA3FB0213D90AB6
:1013CC004FF4616000FB1121DB0A3048C370304BD5
:1013DC00A3FB01235B090371C3EB03139A008A1A65
:1013EC0042710BE04021234802F0F6FE4FF480617D
:1013FC00214802F0F1FE0122204B1A701F4B9B7901
:10140C00012B0ED11D4B5B78012B0AD1194C80217D
:10141C00204602F0E1FE4FF40041204602F0DCFED3
:10142C000CE0144C8021204602F0D4FE4FF4004115
:10143C00204602F0CFFE0022104B5A700F4BDB7986
:10144C00012B27D10D4B9B78012B23D1094C042167
:10145C00204602F0BFFE0821204602F0BBFE102100
:10146C00204602F0B7FE2021204602F0B3FE97E1A1
:10147C00040500200008014000100140B0040020C9
:10148C000C050020C0040020C5B3A29190040020DC
:10149C0089888888B14C0421204602F09DFE0821E1
:1014AC00204602F099FE1021204602F095FE2021E4
:1014BC00204602F091FE0022A94B9A7070E1A94AD5
:1014CC005288934240F2A480A64A9288934200F23A
:1014DC009F80A34B5B793BBBA14B1B7823BB40216B
:1014EC009E4802F079FE4FF480619F4802F074FE32
:1014FC009B4B01221A705A719A4B1A6A9B4BA3FB95
:10150C000213D90A4FF4616000FB1121DB0A9848E1
:10151C00C370984BA3FB01235B090371C3EB03134B
:10152C009A008A1A42710BE040218C4802F054FE5A
:10153C004FF480618C4802F04FFE0122884B1A70E8
:10154C00874B9B7943BB864B5B782BBB834C8021B1
:10155C00204602F041FE4FF40041204602F03CFED2
:10156C007F4B01225A709A717E4B1A6A7F4BA3FBF8
:10157C000213D90A4FF4616000FB1121DB0A7C488D
:10158C0083717C4BA3FB01235B09C371C3EB031376
:10159C009A008A1A02720CE0704C8021204602F0EC
:1015AC001BFE4FF40041204602F016FE01226C4B4C
:1015BC005A706B4BDB79012B15D1694B9B78012B46
:1015CC0011D1664C0421204602F004FE082120466D
:1015DC0002F000FE1021204602F0FCFD20212046E6
:1015EC0002F0F8FDDCE05D4C0421204602F0F4FD35
:1015FC000821204602F0F0FD1021204602F0ECFDFF
:10160C002021204602F0E8FD0022554B9A70C7E0DD
:10161C00534B5B793BBB524B1B7823BB40214F4850
:10162C0002F0DAFD4FF480614F4802F0D5FD4C4BCF
:10163C0001221A705A714B4B1A6A4C4BA3FB0213C2
:10164C00D90A4FF4616000FB1121DB0A4848C370D2
:10165C00484BA3FB01235B090371C3EB03139A00F3
:10166C008A1A42710BE040213C4802F0B5FD4FF460
:10167C0080613D4802F0B0FD0122394B1A70384BA5
:10168C009B7943BB364B5B782BBB344C802120467B
:10169C0002F0A2FD4FF40041204602F09DFD304BBC
:1016AC0001225A709A712F4B1A6A304BA3FB02130A
:1016BC00D90A4FF4616000FB1121DB0A2C488371BD
:1016CC002C4BA3FB01235B09C371C3EB03139A00DF
:1016DC008A1A02720CE0214C8021204602F07CFD1B
:1016EC004FF40041204602F077FD01221C4B5A704A
:1016FC001B4BDB79002B3FD1194B9B78002B3BD13B
:10170C00164C0421204602F065FD0821204602F00B
:10171C0061FD1021204602F05DFD2021204602F0E3
:10172C0059FD0F4B01229A70DA710E4B1A6A0F4B4E
:10173C00A3FB0213D90A4FF4616000FB1121DB0AF1
:10174C000B4883740B4BA3FB01235B09C374C3EBE2
:10175C0003139A008A1A027522E000BF00080140A8
:10176C00B0040020C004002000100140C5B3A291B9
:10177C0090040020898888883B4C0421204602F084
:10178C0029FD0821204602F025FD1021204602F0FB
:10179C0021FD2021204602F01DFD0122334B9A70C1
:1017AC00FFF78CFC28B1012211462F4802F016FDE0
:1017BC0004E0002201212C4802F010FD2C4B1B7878
:1017CC00062B11D1294BDB7A012B0AD1274B1B7924
:1017DC003BB9FFF7B1FC012803D10122234BDA708E
:1017EC0002E00022214BDA70224B93F828302BB9FF
:1017FC00002202211C4802F0F1FCF8BD1B4BDB78E7
:10180C00012B2AD1FFF798FC38B3194B5B6813F006
:10181C00400F05D113F0800F02D113F4806F05D067
:10182C0001220221104802F0D9FCF8BD13F4807F8C
:10183C0002D113F4007F15D00E4B93F82930012BF5
:10184C0005D101220221084802F0C8FCF8BD002293
:10185C000221054802F0C2FCF8BD00220221024818
:10186C0002F0BCFCF8BD00BF00080140B004002031
:10187C0004050020C004002010B5044602F028FA2C
:10188C00164B5B781BB32CBB154B1B789BB1591EAD
:10189C0000D50731C910134C0C4462795200D2B2F6
:1018AC006271114C2468041B322C04D90D4C214458
:1018BC0042F001024A710133DBB2094A1370282B42
:1018CC0008D90023054A5370054A137002E0002220
:1018DC00034B1A70044B186010BD00BFC0020020EF
:1018EC00BD020020C4020020B802002010B504463E
:1018FC0002F0EEF9154B1B780BB31CBB144B1B7889
:10190C008BB1591E00D50731C910124C625C5200C4
:10191C00D2B26254104C2468041B322C03D942F00E
:10192C0001020C4C62540133DBB2094A1370282BB0
:10193C0008D90023054A1370054A137002E00022EF
:10194C00034B1A70044B186010BD00BFC00200207E
:10195C00BC020020C4020020D002002030B583B0AD
:10196C000121082002F07AFE0121102002F076FEFF
:10197C000121084602F072FE124A0921012000F0F2
:10198C0053F9114A0C21022000F04EF94FF4007368
:10199C00ADF8043003258DF8065048248DF8074027
:1019AC0001A90A4802F0B8FB4FF48053ADF804309B
:1019BC008DF806508DF8074001A9054802F0ACFBE4
:1019CC0003B030BDF918000885180008000C014060
:1019DC000010014008B54FF4407002F0C5F902F058
:1019EC002FF900F017F9FFF7B9FF00F02BF908BD3C
:1019FC0010B4094B00EB800019181C5C4A788B78EA
:101A0C00C878224413440344DBB20879834214BFE0
:101A1C000020012010BC7047C402002030B583B0F8
:101A2C0010B101284FD09DE04FF40075ADF8045073
:101A3C0003238DF8063010238DF807304A4C01A98A
:101A4C00204602F069FB2946204602F0C5FB4FF404
:101A5C00FA72464B5968464B1B684648A0FB030379
:101A6C009B0C02FB03F2414B5B685B1A9342FAD36B
:101A7C004FF400713C4802F0ADFB28223B4B5968F7
:101A8C003B4B1B683B48A0FB03039B0C02FB03F284
:101A9C00364B5B685B1A9342FAD34FF40073ADF884
:101AAC00043003238DF8063048238DF8073001A944
:101ABC002D4802F031FB01222F4B1A702F4B0022C4
:101ACC001A601A714EE04FF48055ADF804500323A0
:101ADC008DF8063010238DF80730294C01A92046CB
:101AEC0002F01AFB2946204602F076FB4FF4FA72FC
:101AFC001E4B59681E4B1B681E48A0FB03039B0C16
:101B0C0002FB03F2194B5B685B1A9342FAD34FF456
:101B1C0080511B4802F05EFB2822144B5968144B71
:101B2C001B681448A0FB03039B0C02FB03F20F4B36
:101B3C005B685B1A9342FAD34FF48053ADF80430D0
:101B4C0003238DF8063048238DF8073001A90C4883
:101B5C0002F0E2FA0122084B5A70084A0023C2F83C
:101B6C000530537203B030BD000C0140001000E092
:101B7C009001002083DE1B43C0020020C402002021
:101B8C0000100140014B185C704700BFC0020020E0
:101B9C0000EB8000034B03449878DB7843EA002089
:101BAC00704700BFC4020020044B00EB80001A18E1
:101BBC00185C537843EA0020704700BFC402002031
:101BCC0038B504460020FFF7DDFF70B9FFF710FFB2
:101BDC0058B10020FFF7DCFF05460020FFF7E4FFBB
:101BEC00042D00D9258000B160800120FFF7CAFFC9
:101BFC0078B90120FFF7FCFE58B10120FFF7C8FFB0
:101C0C0005460120FFF7D0FF042D00D9A58000B1B7
:101C1C00E08038BD08B5C0220021024803F08FF9DE
:101C2C0008BD00BFD402002070B4054C4D006E18E6
:101C3C00B300E618E05472600122327270BC704737
:101C4C00D402002070B584B00A238DF80D308DF8C5
:101C5C000E3001238DF80F300024264647E0254630
:101C6C0004EB440293002B4A13441B7A012B3CD106
:101C7C0004EB44029300274A13445B68ABB3012383
:101C8C00A3401E43092C03D928238DF80C3021E0E6
:101C9C00042C03D917238DF80C301BE0042C03D132
:101CAC000A238DF80C3015E0032C03D109238DF891
:101CBC000C300FE0022C03D108238DF80C3009E016
:101CCC00012C03D107238DF80C3003E014B9062343
:101CDC008DF80C3003A802F051F805EB4505AB006C
:101CEC0021460C4AD05C02F0B9FA0134E4B20F2C54
:101CFC00B5D966B1019600238DF8083010238DF804
:101D0C00093001238DF80A3001A802F085F904B0DE
:101D1C0070BD00BFD402002000EB400293001D4AAE
:101D2C0013441B7A012B34D100EB40029300194A67
:101D3C0013445B686BB300EB40029300154AD35C11
:101D4C00012B04D03BB1022B03D0002304E0124B37
:101D5C0002E0124B00E0124BDBB110B5044601213E
:101D6C00814089B2184602F025FA012808D104EB0B
:101D7C0044008300074A13445B680120984710BD58
:101D8C0004EB44008300034A13445B68002098472B
:101D9C0010BD7047D4020020000C0140001001401F
:101DAC000008014008B5012002F07EF910B10120B5
:101DBC0002F08AF90020FFF7AFFF08BD08B502203A
:101DCC0002F072F910B1022002F07EF90120FFF747
:101DDC00A3FF08BD08B5042002F066F910B1042079
:101DEC0002F072F90220FFF797FF08BD08B54FF417
:101DFC00806002F059F928B14FF4806002F064F968
:101E0C000A2037E04FF4006002F04EF928B14FF48D
:101E1C00006002F059F90B202CE04FF4805002F0D6
:101E2C0043F928B14FF4805002F04EF90C2021E018
:101E3C004FF4005002F038F928B14FF4005002F082
:101E4C0043F90D2016E04FF4804002F02DF928B133
:101E5C004FF4804002F038F90E200BE04FF40040B4
:101E6C0002F022F928B14FF4004002F02DF90F20B6
:101E7C0000E00020FFF750FF08BD00BF08B5202090
:101E8C0002F012F920B1202002F01EF9052028E002
:101E9C00402002F009F920B1402002F015F906208B
:101EAC001FE0802002F000F920B1802002F00CF934
:101EBC00072016E04FF4807002F0F6F828B14FF4CA
:101ECC00807002F001F908200BE04FF4007002F072
:101EDC00EBF828B14FF4007002F0F6F8092000E09E
:101EEC000020FFF719FF08BD2DE9F04182B0012158
:101EFC00082002F0B3FB01214FF4001002F0BCFBF0
:101F0C004023ADF8043003248DF806401C238DF8D3
:101F1C0007302D4D01A9284602F0FEF88026ADF8B9
:101F2C00046001A9284602F0F7F84FF010088DF86C
:101F3C0000808DF801408DF8024001258DF803508A
:101F4C00684601F01BFF11238DF800308DF801401D
:101F5C008DF80240684601F011FF2946284602F030
:101F6C006FFB1A4F384601F06BFF194C194B23606D
:101F7C0000236360C4F808804FF6FF72E2602361AF
:101F8C006661A361E36123624FF440526262A36213
:101F9C002146384601F0E8FF06F1804606F500368A
:101FAC00304601F04DFF2146304601F0DDFF2A4658
:101FBC000221384602F006F82A460221304602F089
:101FCC0001F802B0BDE8F081000C01406C00024049
:101FDC00480500201054004008B54AB9094B586018
:101FEC0010229A60D9601946074801F0BDFF08BD60
:101FFC00044B586000229A60D9601946034801F0DE
:10200C00B3FF08BD480500206C0002408000024070
:10201C0070B584B0FFF768FF0023ADF804304BF6C1
:10202C00FF73ADF80630A026ADF808604FF480635E
:10203C00ADF80A304FF48043ADF80C3004AD0A4BC8
:10204C0045F8103D094C0121204602F08FF9294634
:10205C00204602F01DF90121204602F095F9044BAF
:10206C001E8004B070BD00BFE0930400005400401B
:10207C009403002008B54FF0007001F0ADFF78B16B
:10208C000121084802F0AAF90021074801F08CFF51
:10209C004FF0807001F0B2FF044B1B6800221A80D5
:1020AC0008BD00BF005400408000024044050020E1
:1020BC00FEE700BF2DE9F04180460D4614463E4B2D
:1020CC001A604FF420423D4B1A6006E03B4A1368FD
:1020DC00591E11600BB9FFF7EBFF4FF40031384874
:1020EC0002F0B6F90028F1D10121354802F068F967
:1020FC004FF48052314B1A6006E0304A1368591E77
:10210C0011600BB9FFF7D4FF2E492D4802F092F95C
:10211C000028F2D0294F4FF480563E602A4B198884
:10212C000022C9B2264802F07BF93E6006E0234A41
:10213C001368591E11600BB9FFF7BAFF23492048E9
:10214C0002F078F90028F2D0290A1D4802F062F951
:10215C004FF48052194B1A6006E0184A1368591E46
:10216C0011600BB9FFF7A4FF1949154802F062F989
:10217C000028F2D0E9B2124802F04CF94FF4805228
:10218C000E4B1A6006E00D4A1368591E11600BB90C
:10219C00FFF78EFF0E490A4802F04CF90028F2D0E6
:1021AC00002221784046FFF717FF0121094801F072
:1021BC00FBFE0020BDE8F08140050020F00000206F
:1021CC00005400400100030094030020820007002B
:1021DC00840007006C00024000B583B00023ADF80A
:1021EC00063000934FF420422E4B1A6006E02D4A25
:1021FC001368591E11600BB9FFF75AFF4FF40031E9
:10220C00294802F025F90028F1D10121264802F0D5
:10221C00D7F84FF48052234B1A6006E0214A13681A
:10222C00591E11600BB9FFF743FF20491E4802F0FD
:10223C0001F90028F2D01E4B19880022C9B21A48A5
:10224C0002F0EEF84FF42042164B1A60164B9B8AA4
:10225C009BB2ADF80630134A1368591E11600BB9C6
:10226C00FFF726FFBDF8063040F202421A42EDD0CD
:10227C00BDF8063003F002039BB253B90D490A486E
:10228C0002F002F9009B5A1C0092962BBDD1FFF76D
:10229C000FFF0548038B012102F0A0F8002003B0CA
:1022AC005DF804FBF0000020005400400100030026
:1022BC0094030020000400102DE9F84305460C4659
:1022CC0001F01F01C2F347135FFA82F808F01F07F1
:1022DC0000295BD1002B37D18E4A17702146FFF7AE
:1022EC00E9FE4FF420428C4B1A6006E08A4A1368D0
:1022FC00591E11600BB9FFF7DBFE864B1B7813F0F0
:10230C00FF0FF3D1FFF768FFBDE8F883814A202364
:10231C00137021462846FFF7CDFE4FF420427E4B2A
:10232C001A6006E07C4A1368591E11600BB9FFF75E
:10233C00BFFE784B1B7813F0FF0FF3D1FFF74CFF68
:10234C002034A4B2203533465E1EF6B2002BDDD10C
:10235C00002F00F0DC806F4A177021462846FFF7EB
:10236C00A9FE4FF420426C4B1A6006E06A4A1368CF
:10237C00591E11600BB9FFF79BFE664B1B7813F0CF
:10238C00FF0FF3D1FFF728FFBDE8F883C1F120065A
:10239C00F6B2002B55D11FFA86F94A4537D95D4A5A
:1023AC0016702146FFF786FE4FF420425A4B1A60F6
:1023BC0006E0594A1368591E11600BB9FFF778FEF5
:1023CC00544B1B7813F0FF0FF3D1FFF705FFC6EB4F
:1023DC000803DBB24F4A137004EB090189B2A81948
:1023EC00FFF768FE4FF420424B4B1A6006E04A4A56
:1023FC001368591E11600BB9FFF75AFE454B1B7839
:10240C0013F0FF0FF3D1FFF7E7FEBDE8F883414A65
:10241C0017702146FFF74EFE4FF420423E4B1A60D8
:10242C0006E03D4A1368591E11600BB9FFF740FED8
:10243C00384B1B7813F0FF0FF3D1FFF7CDFEBDE83F
:10244C00F8831FFA86F9C9EB0207BBB2C3F347172F
:10245C0003F01F08002E39D02E4A16702146FFF7C4
:10246C0029FE4FF420422C4B1A6006E02A4A1368CE
:10247C00591E11600BB9FFF71BFE264B1B7813F08E
:10248C00FF0FF3D1FFF7A8FE4C44A4B235441DE076
:10249C00204A2023137021462846FFF70BFE4FF4E9
:1024AC0020421D4B1A6006E01B4A1368591E11602E
:1024BC000BB9FFF7FDFD174B1B7813F0FF0FF3D192
:1024CC00FFF78AFE2034A4B2203537467E1EF6B2C2
:1024DC00002FDDD1B8F1000F19D00E4A82F8008020
:1024EC0021462846FFF7E6FD4FF420420A4B1A60BE
:1024FC0006E0094A1368591E11600BB9FFF7D8FDA5
:10250C00044B1B7813F0FF0FF3D1FFF765FEBDE80A
:10251C00F88300BF74050020F000002010B54FF4C4
:10252C00001001F059FD20B30021124801F03CFDD0
:10253C004FF4801001F062FD4FF420420E4B1A60F4
:10254C0006E00D4A1368591E11600BB9FFF7B0FD78
:10255C000A490B4801F07CFF0028F2D0084C0121FD
:10256C00204601F03BFFA38A238B064B1B680022FD
:10257C001A7010BD6C000240F00000200400001026
:10258C00005400404005002072B6704762B6704798
:10259C0070B506460D461446804B1A604FF4204227
:1025AC007F4B1A6006E07E4A1368591E11600BB906
:1025BC00FFF77EFD4FF400317A4801F049FF002807
:1025CC00F1D10121774801F0FBFE4FF48052744B9E
:1025DC001A6006E0724A1368591E11600BB9FFF7B6
:1025EC0067FD71496F4801F025FF0028F2D06F4B51
:1025FC0019880022C9B26B4801F012FF4FF48052C7
:10260C00674B1A6006E0664A1368591E11600BB9D5
:10261C00FFF74EFD6649634801F00CFF0028F2D02D
:10262C00290A604801F0F6FE4FF480525C4B1A60A8
:10263C0006E05B4A1368591E11600BB9FFF738FDB1
:10264C005C49584801F0F6FE0028F2D0E9B2554832
:10265C0001F0E0FE4FF48052514B1A6006E0504AF4
:10266C001368591E11600BB9FFF722FD52494D48F2
:10267C0001F0EEFE0028F2D001214A4801F0A0FE44
:10268C004FF48052464B1A6006E0454A1368591EB7
:10269C0011600BB9FFF70CFD4349424801F0CAFE2B
:1026AC000028F2D0414B19880122C9B23D4801F0F3
:1026BC00B7FE2388012B50D84FF48052384B1A6048
:1026CC0006E0374A1368591E11600BB9FFF7F0FC8E
:1026DC003A49344801F0BCFE0028F2D0314D0021BB
:1026EC00284601F089FEFFF74FFF2B8B012128466E
:1026FC0001F074FEFFF74AFF4FF48052284B1A602A
:10270C0006E0274A1368591E11600BB9FFF7D0FC7D
:10271C002B49244801F09CFE0028F2D0214801F0FE
:10272C007BFE30702388013B23804FF480521C4B7E
:10273C001A6006E01A4A1368591E11600BB9FFF7AC
:10274C00B7FC184B1B8803F400739BB2002BF1D120
:10275C000121144801F050FE1EE04FF48052104B42
:10276C001A6006E00E4A1368591E11600BB9FFF788
:10277C009FFC14490B4801F05DFE0028F2D00122A9
:10278C0021883046FFF728FC0121064801F00AFE9B
:10279C0001210D4801F008FC002070BD440500200B
:1027AC00F0000020005400400100030094030020BE
:1027BC0082000700840007000400001002000010D3
:1027CC0040000010020003008000024000B583B0FE
:1027DC0002AA012322F8023D01460DF10500FFF784
:1027EC00D7FEBDF806309BB2002BFAD19DF8050040
:1027FC0003B05DF804FB00BF00B583B08DF8041086
:10280C00090A8DF805100222014601A8FFF754FDB4
:10281C0003B05DF804FB00BF00B583B002AB03F856
:10282C00011D012201461846FFF746FD03B05DF875
:10283C0004FB00BFF0B583B0234C244B0093002362
:10284C0001220821204600F051F8214F3860214B1D
:10285C00009300234FF400420821204600F046F874
:10286C001D4E30601D4B009300230422082120468E
:10287C0000F03CF81A4D28601A4B009300230222FA
:10288C000821204600F032F8174C206040F6B83290
:10289C004FF4FA61386800F06BF840F6B8324FF438
:1028AC00FA61306800F064F840F6B8324FF4FA611F
:1028BC00286800F05DF840F6B8324FF4FA612068F1
:1028CC0000F056F803B0F0BD000C014039020008CE
:1028DC008405002069020008780500209D0200088C
:1028EC007C050020D1020008800500202DE9F04174
:1028FC0082B01E4C248D092C32D81D4617468846B2
:10290C000646182002F008FB044658B30660878080
:10291C002B1C18BF01238371089B83600023437415
:10292C004FF47A73838240F2DC53C38205234382D3
:10293C000121404601F092FEADF8047003238DF89E
:10294C00063028238DF8073001A9304601F0E4FB4E
:10295C00064B1A8D511C198543F82240204602E083
:10296C00002000E0002002B0BDE8F08198030020B8
:10297C008182C282704700BF0B88052B34D170B5A1
:10298C004278837843EA022301339CB2C2780379FC
:10299C0043EA0222531E9BB240F2CE75AB4225D8BD
:1029AC0000230B80012303700B8801330B8012F082
:1029BC00070F04D0C2F3C7050135EDB201E0C2F335
:1029CC00C7050E4645700B8801330B80002321464A
:1029DC000230FDF7ADFF10B100F0C6F970BD3388C1
:1029EC001D443580002070BD03207047032070BD4E
:1029FC000B88052B23D14178837843EA01210131DF
:102A0C0089B20379EBB9C278531EDBB2FD2B1AD90C
:102A1C0000B583B000238DF80530FF2A03D10123C4
:102A2C008DF8043002E000238DF8043001231A469F
:102A3C0001A8FDF77DFF40B100F096F906E00320F8
:102A4C0070470320704703207047002003B05DF8E7
:102A5C0004FB00BF0B88052B2AD970B5427883780C
:102A6C0043EA022301339DB2C278037943EA02227E
:102A7C00467912F0070F04D0C2F3C7040134E4B254
:102A8C0001E0C2F3C704531E9BB2B3F5F66F11D22B
:102A9C00B44211D10C46012329460630FDF748FFFC
:102AAC0010B100F061F970BD05232380002070BDCA
:102ABC0003207047032070BD032070BD38B50B8810
:102ACC00052B32D14278837843EA022301339BB23F
:102ADC00C478027942EA0422541EA4B240F2CE75A4
:102AEC00AC4224D800240C80022404700C880134DD
:102AFC000C8012F0070F04D0C2F3C7040134E4B207
:102B0C0001E0C2F3C7040D464470098801312980E5
:102B1C0019460230FDF70EFF10B100F025F938BD53
:102B2C002B881C442C80002038BD032038BD03208A
:102B3C0038BD00BF08B50B88052B0ED141788378C2
:102B4C0043EA0121013101231A4689B20330FDF712
:102B5C00ABFE20B100F008F908BD032008BD002031
:102B6C0008BD00BF38B50B88052B20D94278837877
:102B7C0043EA022301339DB2C278037943EA02226D
:102B8C004479531E9BB2772B13D85300DBB29C4273
:102B9C0011D10C46012329460630FDF785FE10B1F4
:102BAC0000F0E2F838BD05232380002038BD032057
:102BBC0038BD032038BD032038BD00BFF8B50B88E5
:102BCC00052B28D14278837843EA022301339DB246
:102BDC000779BEB2731E9BB27C2B1ED80C460246E4
:102BEC0000230B80032100F8021B21880131218076
:102BFC007F00577022880132228032462946FDF729
:102C0C0053FE10B100F0B0F8F8BD238803EB460674
:102C1C0026800020F8BD0320F8BD0320F8BD00BFBE
:102C2C000B88092B48D92DE9F0414278837843EA87
:102C3C00022301339DB2C678037943EA0626427912
:102C4C00837943EA022301339CB2C279037A43EAC3
:102C5C000222477A731E9BB27C2B2FD88AB3792A17
:102C6C0032D8B7EB420F32D10F46804601232146B2
:102C7C000A30FDF719FE0346C0B900233B804046DD
:102C8C00172200F8022B3A8801323A80720088F839
:102C9C0001203A8801323A8032462946FDF704FE7B
:102CAC00034618B93A8802EB46063E8093B11846A3
:102CBC0000F05AF8BDE8F081002070470320BDE811
:102CCC00F0810320BDE8F0810320BDE8F0810320F2
:102CDC00BDE8F0810020BDE8F08100BF0B88052B1A
:102CEC002BD170B54278837843EA022301339DB22D
:102CFC00C678037943EA0626731E9BB27B2B1ED83B
:102D0C000C46034600220A80042200F8022B0A8893
:102D1C0001320A8072005A700B8801330B803246E4
:102D2C002946FDF7BFFD10B100F01EF870BD2388D9
:102D3C0003EB46062680002070BD0320704703205D
:102D4C0070BD00BF38B50D46054B1C8822460549A1
:102D5C00013002F0E9F801342C80002038BD00BFAE
:102D6C00C4030020C8030020012809D010B1072893
:102D7C0002D003E000207047062070470420704703
:102D8C000220704770B54C1EE4B2F62C2FD81E46AC
:102D9C0015460C46184B197000BB184A184B1A6094
:102DAC00184A194B1A60194A194B1A60194A1A4BCE
:102DBC001A600022194B1A60194A1A4B1A601A4AE7
:102DCC001A4B1A601A4A1B4B1A609DF81030324687
:102DDC002946204600F0E4F8044600E002244CB9F1
:102DEC0000F022FA28B10122134B1A7002E00224DF
:102DFC0000E00324204670BDFA030020F12F0008E8
:102E0C00F00300200D300008E80300206D300008AE
:102E1C00F403002021300008EC0300200004002003
:102E2C00E930000890050020753100088805002065
:102E3C00F93100088C0500207401002008B5064B00
:102E4C001B78012B06D1054B1B6898470020024BC1
:102E5C00187008BD062008BD74010020F003002086
:102E6C00384B1B78002B5FD110B582B00DF10700E9
:102E7C0000F0EEF9012859D19DF80730012B02D052
:102E8C00022B15D054E0304B1B68304A3049314886
:102E9C00984700284ED12F4B1B782F4A127893421B
:102EAC0001D0002B48D1022000F0C6F9002046E0EA
:102EBC00274B18680178294B19700122284B1A707E
:102ECC0000230FE0274A12F833206AB1914208D14F
:102EDC00244A02EBC3035B681C499847204B1870CB
:102EEC0002E001330F2BEDDD1A4B1B7833B31C4B77
:102EFC001B7873B1154A16480468012111801749D3
:102F0C00097841F080012170006811884C1C1480F4
:102F1C004354154B1B680D4A12880D4909680E481D
:102F2C000078984700200AE006207047002006E051
:102F3C00002004E0002002E0002000E0002002B0AD
:102F4C0010BD00BF74010020EC030020FC03002026
:102F5C0004040020F8030020FA030020F9030020E9
:102F6C00FE030020F4000020F403002030B4FF2204
:102F7C00154608E003785340074AD25C6A4007497B
:102F8C00CD5C214601304B1E9CB20029F2D142EAA5
:102F9C00052030BC704700BF70510008705000080D
:102FAC0010B50846144672B60822214600F090F976
:102FBC0001280FD1B4F5964F04D864000848B0FB33
:102FCC00F4F000E0232080B200F042FA012803D193
:102FDC00002002E0032000E0032062B610BD00BF19
:102FEC00A07F170008B572B60021044B19700120A0
:102FFC0000F040F900F066FA62B608BD110400203A
:10300C0008B572B60021084600F034F900F068FAF1
:10301C0062B608BD72B6104B1B889BB2032B15D938
:10302C0070B516460D4604460B4B198889B20B48F1
:10303C00FFF79CFF68B9094A12F8013B2370064B55
:10304C001B889BB2033B33802A6003E0052062B6E9
:10305C007047052062B670BD0E0400209C05002050
:10306C0038B572B6184B1B78DBB2012B29D103464D
:10307C00481E164C2060164C0125258001F8013C99
:10308C0023889BB21A4492B22280218889B2FFF71E
:10309C006DFF23889BB25A1992B22280C2B20D499D
:1030AC00CA5423889BB25A1992B22280C0F30720CB
:1030BC00C854094B1D702946002000F0DBF8002095
:1030CC0000E0052062B638BD110400200804002081
:1030DC000C0400209C0500201004002000B583B0D7
:1030EC000DF1070000F086F91C4B1B78DBB2032BAB
:1030FC0030D8DFE803F002081A0500F0E3F929E004
:10310C0000F0E0F926E0164A0023138013889BB2E6
:10311C00591C89B211809DF80710124AD154022211
:10312C000E4B1A7000F0CEF914E00D4B1B889BB2BD
:10313C00FF2B0AD80A490B889BB25A1C92B20A8000
:10314C009DF80710074AD15402E00322034B1A7072
:10315C0000F0B8F9002003B05DF804FB1104002066
:10316C000E0400209C05002010B51C4B1B7823B1CD
:10317C0003F0FF02012A06D02BE00021012000F011
:10318C0079F8002428E0164B1B889BB27BB1154CB8
:10319C002368187800F024F9236801332360104A5F
:1031AC0013889BB2013B9BB21380002414E00E4B9E
:1031BC001B8803F040039BB26BB1032000F03CF87A
:1031CC0004460021012000F055F80022034B1A7030
:1031DC0002E0002400E00024204610BD1004002072
:1031EC000C040020080400200048004010B50D4BD2
:1031FC001B7823B103F0FF02022A05D009E000205E
:10320C0000F01AF8044605E0012000F015F8044619
:10321C0000E0002400F064F90122024B1A702046F1
:10322C0010BD00BF110400200022024B1A700120B7
:10323C00704700BF120400200123034A1370034A95
:10324C0010701846704700BF1204002013040020B1
:10325C00064B1B783BB1064B1B7803700022034BCB
:10326C001A70012070470020704700BF1204002024
:10327C001304002010B50C4658B14FF4805112487D
:10328C0000F0AAFF012240F22551104801F0A8FBE2
:10329C0005E0002240F225510C4801F0A1FB5CB185
:1032AC004FF48051084800F095FF012240F227713D
:1032BC00064801F095FB10BD002240F2277103482F
:1032CC0001F08EFB10BD00BF000C01400048004017
:1032DC002DE9F04186B0884617461E4601214FF471
:1032EC00802001F0C9F90121092001F0B7F94FF450
:1032FC008063ADF8103018238DF8133003258DF84A
:10330C001250354C04A9204600F006FF4FF4006320
:10331C00ADF8103004238DF813308DF8125004A939
:10332C00204600F0F9FE27238DF8143000238DF889
:10333C0015308DF8163001238DF8173005A800F0E4
:10334C001DFD4FF48053ADF8103010238DF8133061
:10335C008DF812500DEB0301204600F0DDFECDF888
:10336C000080092F04D14FF48053ADF8043002E0F3
:10337C000023ADF804300023ADF80630012E07D041
:10338C0016B1022E09D00DE00023ADF808300CE088
:10339C004FF4C063ADF8083007E04FF48063ADF82C
:1033AC00083002E00023ADF808300C23ADF80A30E9
:1033BC000023ADF80C30094C6946204601F09EFA0A
:1033CC0001210846FFF756FF0121204601F0FAFAC9
:1033DC00012006B0BDE8F081000C0140004800401F
:1033EC0008B50146024801F017FB012008BD00BFDB
:1033FC000048004010B50446024801F011FB207053
:10340C00012010BD0048004008B540F225510D4880
:10341C0001F00AFB38B140F225510A4801F02AFBB1
:10342C00094B1B68984740F22771064801F0FCFADB
:10343C0038B1064B1B68984740F22771014801F0E0
:10344C0019FB08BD004800409005002088050020AD
:10345C0030B585B004460121042001F00DF9684611
:10346C0001F016FA40F20773ADF80030013CADF8EC
:10347C0004400023ADF80630ADF80230104D69461B
:10348C00284601F0BBF90121284601F033FA01224C
:10349C001146284601F014FA1E238DF80C30012435
:1034AC008DF80D408DF80E408DF80F4003A800F0FC
:1034BC0065FC2146284601F0F5F9204605B030BDE3
:1034CC000008004010B5054C0021204601F004FA1C
:1034DC000121204601F0E6F910BD00BF00080040B4
:1034EC0008B50021014801F0DDF908BD00080040D5
:1034FC0008B50121054801F0F1F930B1012103486B
:10350C0001F0F8F9024B1B68984708BD0008004011
:10351C008C05002070B582B00121142001F09EF8BA
:10352C00FF23ADF8043003258DF8065010248DF8D8
:10353C000740114E01A9304600F0EEFD4FF48063B8
:10354C00ADF804308DF806508DF8074001A90B48F2
:10355C0000F0E2FD01210A4800F046FE4FF4004362
:10356C00ADF804308DF806508DF8074001A93046AF
:10357C0000F0D2FD02B070BD000801400010014007
:10358C000004300008B501F0A5F8012824D1102062
:10359C0000F0AAFD022000F09DFD002000F0B2FF1B
:1035AC00002000F0C3FF4FF4806000F0B5FF4FF433
:1035BC00E0114FF4803000F083FF012000F08AFF0F
:1035CC00392001F06DF80028FAD0022000F088FFB5
:1035DC0000F090FF0828FBD108BD00BF10B5C1EB6F
:1035EC0001118C004FF4616303FB0040141801F0CF
:1035FC00E1F8204601F0C0F801F0DCF810BD00BF86
:10360C0038B5044601F0A4F8144BA3FB00231B0CA3
:10361C00134A02FB1303134AA2FB0312D10A4FF401
:10362C00616000FB1131104BA3FB01035B091D46CC
:10363C00C3EB031398000B1A23706570C2F3C722F7
:10364C00A270102000F0ECFBE080082000F0E8FBFA
:10365C0020710C2000F0E4FBE07038BD07452EC251
:10366C0080510100C5B3A291898888880E4BA3FBB9
:10367C000023DB094FF4C87202FB13039BB26BB13E
:10368C00094BA3FB00235B09642202FB13039BB2CF
:10369C0033B110F0030F05D10120704701207047A2
:1036AC0000207047002070471F85EB5170B5054610
:1036BC000C461646042907D0062905D0092903D043
:1036CC000B2901D0022901D11F2D0BD0022C01D1C5
:1036DC001E2D07D0022C0ED11D2D0CD13046FFF71C
:1036EC00C5FF40B901F034F8044601F031F8001B75
:1036FC000128FAD970BD2146082000F083FB294629
:10370C000C2000F07FFB3146102000F07BFB70BDDD
:10371C0010B50446027841788078FFF75FFFE288A5
:10372C002179E078FFF7C2FF10BD00BF38B5082043
:10373C0000F076FB384C2070102000F071FB60809C
:10374C000C2000F06DFBC5B265702478012C0BD0F9
:10375C00032C09D0052C07D0072C05D0082C03D03E
:10376C000A2C01D00C2C15D11E2D03D801352A4B57
:10377C005D7043E00C2C05D0274B01341C700122EA
:10378C005A703BE0244B01221A705A705A8801324D
:10379C005A8033E0042C05D0062C03D0092C01D020
:1037AC000B2C0BD11D2D03D801351B4B5D7025E067
:1037BC00194B01341C7001225A701FE0022C1DD1D0
:1037CC001B2D03D80135144B5D7017E01C2D0ED149
:1037DC00114B5888FFF74AFF18B101350E4B5D703D
:1037EC000CE00D4B01341C7001225A7006E01D2DAB
:1037FC0004D1094B01341C7001225A70064C2178FB
:10380C00082000F0FFFA61780C2000F0FBFA6188C8
:10381C00102000F0F7FA38BDA406002030B40229BD
:10382C0003D80C31C9B2013880B24B1C03EB4303F3
:10383C005C00124B83FB0453E417C4EBA304A4B247
:10384C000F4DA5FB0035C5F34F13C5F3CF1502EB98
:10385C0041022244024402EB9000C01A2B1801339F
:10386C009BB20848A3FB0001581A01EB50008008DA
:10387C00C0EBC000181A80B230BC70476766666631
:10388C001F85EB512549922410B500F061FF124BB6
:10389C00984205D810BDFFF749FF0134E4B200E0AF
:1038AC00002400F055FF0D4BA3FB0023C01A03EBC3
:1038BC005003B4EB134FEED300F04AFF074BA3FBBE
:1038CC000023C21A03EB52031B0C054A02FB130024
:1038DC0000F052FF10BD00BF7E510100A3B05D840B
:1038EC007F51010010B5012000F0D4FD042000F040
:1038FC0097FA474B186000285AD101214FF0C0505D
:10390C0000F0BAFE00F06CFA424C052323700E2333
:10391C00637040F2E17363804FF480413E4B198039
:10392C001C2000F06FFA2178082000F06BFA617807
:10393C000C2000F067FA6188102000F063FA4AF658
:10394C00AA21042000F05EFA012000F0F9FD00230A
:10395C0001E001339BB241F287329342F9D9412005
:10396C0000F09EFE0028FAD04FF4807000F0FCFDB1
:10397C00012000F001FE00F01DFF0121084600F0BF
:10398C00C3FE00F017FF0121182000F03BFA47F6A8
:10399C00FD7000F0FFFE00F00DFF00221C21132033
:1039AC00FFF71CFE4AF6AA21042000F02BFA14E0C3
:1039BC0001214FF0C05000F05FFE002301E0013305
:1039CC009BB241F287329342F9D900F0F3FE012108
:1039DC00084600F099FE00F0EDFEFFF755FF1820A9
:1039EC0000F01EFA0D4B1870082000F019FA094C63
:1039FC0020700C2000F014FA6070102000F010FA07
:103A0C0060801C2000F00CFA034B188010BD00BF26
:103A1C0078010020A4060020A8060020AA06002099
:103A2C0000B583B003238DF8043004238DF80530E2
:103A3C008DF8063001238DF8073001A800F09EF9AF
:103A4C0003B05DF804FB00BF08B5FFF79BFD012137
:103A5C004FF0C05000F010FE00F052FBFFF7E0FFFB
:103A6C00FFF740FF002000F0C3F9012000F018FD23
:103A7C00602000F01BFD012000F00CFD08BD00BF14
:103A8C0070B5082000F0CCF9C4B20C2000F0C8F9D5
:103A9C00C5B2102000F0C4F90646012000F094FED7
:103AAC0030B10822414BC3F88021012000F09CFE6C
:103ABC0000F04EFE3E4B984208D100F07BFE0020F9
:103ACC0000F05AFE00F076FEFFF730FE00F040FEEC
:103ADC00A0F56160B0F5616F67D200F039FE354B2F
:103AEC00A3FB0023DB0A4FF4616202FB1303A3F672
:103AFC00D4533B2B59D800F02BFE2E4AA2FB00329C
:103B0C00D20A4FF4616303FB12022B4BA3FB02138B
:103B1C005B09C3EB0313A2EB83033B2B45D1032CB3
:103B2C001ED1182D1CD92A4621463046FFF776FEA9
:103B3C00B0B9224BB3F90030002B11DA00F008FEBB
:103B4C0000F6116000F018FE1C4B1988C1F30E0131
:103B5C0041F48041314389B219801C2000F052F9A4
:103B6C000A2C22D1182D20D92A4621463046FFF79F
:103B7C0055FED0B9114B1B8803F480439BB2A3B103
:103B8C0000F0E6FDA0F60F6000F0F6FD0B4B198877
:103B9C0021F480416FEA41416FEA514189B23143CE
:103BAC0089B219801C2000F02DF970BD00E100E0F5
:103BBC007F510100C5B3A29189888888A80600208E
:103BCC0030B583B00121182000F048FD1F23ADF85B
:103BDC00043003258DF8065048248DF8074001A9C0
:103BEC00084800F099FA4FF4C043ADF804308DF852
:103BFC0006508DF8074001A9034800F08DFA03B078
:103C0C0030BD00BF00100140000C0140084B1B6888
:103C1C00084AA2FB03239B09013B074A5360F0218E
:103C2C00064B83F82310002393600723136070471F
:103C3C0090010020D34D621010E000E000ED00E098
:103C4C000C4BDA6822F08072DA60DA6842F080722B
:103C5C00DA60094B1A6822F001021A601A6842F005
:103C6C0001021A6000225A605A6800BF00BF5868EF
:103C7C00801A7047F0ED00E0001000E02DE9F041F3
:103C8C00124C2478042C1BD81E4617468846054631
:103C9C00142001F041F9B0B145608560017868F3FA
:103CAC00000167F341010170C660069B0361074B7D
:103CBC001A78511C197003EB82035860BDE8F0812F
:103CCC000020BDE8F0810020BDE8F0811404002044
:103CDC00034B5B680348A0FB03300009704700BF2F
:103CEC00001000E0398EE33838B51C4A13680133F4
:103CFC0013601B4B1B681BB1194A1368013B136003
:103D0C00002426E02546174B03EB84035B68F3B1D4
:103D1C001A7812F0020F1AD09A680AB1013A9A6016
:103D2C00104B03EB85035868836883B9C36801693A
:103D3C0098470C4B03EB85056B685A689A601A78A8
:103D4C0012F0010F03D11A786FF341021A7001348B
:103D5C00E4B2044B1B789C42D4D338BD2C04002015
:103D6C00300400201404002040F0BF6040F4003008
:103D7C00014BD860704700BF00ED00E0C378FBB189
:103D8C00154BDB68DB43C3F30223C3F104010F22A1
:103D9C00DA40437803FA01F1837813400B431B019B
:103DAC000278DBB20D490A4482F8003303785809D3
:103DBC0003F01F03012202FA03F341F8203070478D
:103DCC0003785A0903F01F03012101FA03F320328F
:103DDC00024941F82230704700ED00E000E100E0BC
:103DEC0008B5012000F056FC002000F053FC08BD83
:103DFC00034A938D9BB223F46073184390857047EC
:103E0C00006C004082B000230193044B0193019B92
:103E1C0018440190019B196002B07047006C00407F
:103E2C0082B000230193054B0193019B1844019030
:103E3C00019B188880B202B0704700BF006C004034
:103E4C00036823F001031B041B0C036000230360B5
:103E5C0043608360C360364B984205D1354A536842
:103E6C0043F00F0353607047334B984205D1314AEE
:103E7C00536843F0F00353607047304B984205D1C0
:103E8C002C4A536843F47063536070472C4B984230
:103E9C0005D1284A536843F4704353607047294B4B
:103EAC00984205D1234A536843F4702353607047FA
:103EBC00254B984205D11F4A536843F47003536055
:103ECC007047224B984205D11A4A536843F07063ED
:103EDC00536070471E4B984205D11E4A536843F0FD
:103EEC000F03536070471C4B984205D1194A536815
:103EFC0043F0F00353607047184B984205D1154AB4
:103F0C00536843F4706353607047154B984205D166
:103F1C00104A536843F4704353607047114B9842F6
:103F2C0004D10C4A536843F470235360704700BFAC
:103F3C0008000240000002401C0002403000024019
:103F4C0044000240580002406C00024080000240D5
:103F5C0008040240000402401C04024030040240E9
:103F6C00440402405804024010B4036823F4FF4296
:103F7C0022F070028C680B6A1C430B691C434B6962
:103F8C001C438B691C43CB691C434B6A1C438B6AD7
:103F9C00234313430360CB6843600B6883604B6817
:103FAC00C36010BC704700BF21B1036843F001032C
:103FBC0003607047036823F001031B041B0C0360B0
:103FCC00704700BF1AB1036819430160704703685A
:103FDC0023EA01010160704710F0805F02D0054BAD
:103FEC001B6801E0044B1B68034201D001207047A1
:103FFC0000207047000402400000024010F0805F77
:10400C0002D0034B58607047024B5860704700BF9A
:10401C0000040240000002408379002B34D010B41D
:10402C00204B1A68016822EA01021A605A6801687A
:10403C0022EA01025A60027902F1804202F58232D0
:10404C0014680168214311609A68016822EA010230
:10405C009A60DA68016822EA0102DA604379102B6F
:10406C0009D1104B996802680A439A60D9680268B2
:10407C000A43DA6013E003F1804303F582331968D5
:10408C0002680A431A600AE0037903F1804303F5DE
:10409C0082331A68016822EA01021A60704710BC68
:1040AC00704700BF00040140064A13680340526980
:1040BC00104202D01BB9002070470020704701202D
:1040CC00704700BF00040140014B5861704700BFAE
:1040DC0000040140034A136803F0380318431060CE
:1040EC00704700BF00200240044B1A6822F01002F7
:1040FC001A601A6810431860704700BF0020024015
:10410C00034B044A5A6002F188325A60704700BF70
:10411C000020024023016745F0B4CB7803F00F0276
:10412C00154613F0100F01D08D7815430B78E3B1C1
:10413C000668002316E001229A400C8832EA040437
:10414C000FD19C000F27A74026EA070605FA04F4B6
:10415C002643CC78282C01D1426102E0482C00D1B6
:10416C0002610133072BE6D906600B88FF2B1ED9A1
:10417C004668002318E003F108040122A2400C88D1
:10418C0032EA04040FD19C000F27A74026EA070649
:10419C0005FA04F42643CC78282C00D14261CC7863
:1041AC00482C00D102610133072BE4D94660F0BCE6
:1041BC00704700BF8368194201D00120704700206E
:1041CC00704700BFC368194201D00120704700201E
:1041DC00704700BF01617047416170470AB10161CE
:1041EC0070474161704700BF30B4002802DA1A4BA7
:1041FC00DB6901E0184B5B68C0F3034582B200F445
:10420C004014B4F5401F07D123F07063124D6C6855
:10421C0024F070646C6011E010F4801F06D003244D
:10422C00AC4023EA040343F0706307E0440D24011F
:10423C0002FA04F423EA040343F0706319B1410D4C
:10424C0009018A401343002802DA034AD36101E0D2
:10425C00014A536030BC70470000014030B401F09B
:10426C0003039B000F2404FA03F58908074A023163
:10427C0052F8214024EA050442F8214052F821402A
:10428C009840204342F8210030BC704700000140A8
:10429C00F0B587B004460D468688B6B226F03F06C8
:1042AC00B6B201A800F06EF903982D49A1FB0031BC
:1042BC00890C8FB23E43A680228892B222F0010272
:1042CC0092B222802B68274A934209D85B00B0FB3C
:1042DC00F3F39BB2032B00D804230137278427E088
:1042EC00EE884BF6FF72964205D103EB4302B0FB0E
:1042FC00F2F39BB208E003EB830303EB8303B0FB05
:10430C00F3F39BB243F48043C3F30B020AB943F0BB
:10431C00010343F400434FF4967201FB02F1124A7D
:10432C0082FB0102C917C1EBA211013189B22184B0
:10433C00A38323889BB243F00103238023889BB281
:10434C0023F4816323F00203A9886A890A43134387
:10435C002380AA892B891343238107B0F0BD00BFAA
:10436C0083DE1B43A0860100D34D621029B1038864
:10437C009BB243F001030380704703889BB223F088
:10438C0001039BB20380704729B183889BB243F42D
:10439C0000638380704783889BB223F400639BB2D5
:1043AC008380704729B183889BB243F48053838008
:1043BC00704783889BB223F480539BB283807047F1
:1043CC0029B103889BB243F4807303807047038840
:1043DC009BB223F480739BB20380704729B103888E
:1043EC009BB243F400730380704703889BB223F4A1
:1043FC0000739BB20380704729B103889BB243F4CE
:10440C0080630380704703889BB223F480639BB264
:10441C000380704701827047008AC0B2704700BFAA
:10442C0012B141F0010101E001F0FE0189B20182FB
:10443C00704700BF838A9BB2028B43EA024323F08E
:10444C007F4331EA030301D10120704700207047FC
:10445C0082B000230193009300900B0F019321F085
:10446C007F41019B1BB1009B1433009303E0090CAB
:10447C00009B18330093009B1B68194201D001204C
:10448C0000E0002002B0704721F07F41C94389B29F
:10449C0081827047014B1860704700BF20000E42AC
:1044AC00014B1860704700BF10000E42034A13689E
:1044BC0023F0E00318431060704700BF0070004009
:1044CC00034A536823F47C1301431943516070472A
:1044DC0000100240014B1860704700BF6000424260
:1044EC00034A536823F0030318435060704700BF1E
:1044FC0000100240024B586800F00C00704700BFDF
:10450C0000100240034A536823F0F0031843506034
:10451C00704700BF00100240034A536823F4E06365
:10452C0018435060704700BF00100240034A5368A4
:10453C0023F4605343EAC0005060704700100240FF
:10454C00084B00221A701A70012802D0042804D0DB
:10455C0070470122034B1A7070470522014B1A70E9
:10456C00704700BF20100240024A136A18431062C1
:10457C00704700BF00100240014B1860704700BF2D
:10458C003C04424210B4294B5B6803F00C03042B2F
:10459C0005D0082B06D013BB254B036021E0244B20
:1045AC0003601EE0214A53685268C3F3834302330D
:1045BC0012F4803F04D11F4A02FB03F3036010E0A6
:1045CC001A4A526812F4003F04D01A4A02FB03F351
:1045DC00036006E0164A02FB03F3036001E0144B90
:1045EC00036012494B68C3F30313134CE35CDAB258
:1045FC000368D34043604A68C2F30222A25CD2B281
:10460C0023FA02F282604A68C2F3C222A25CD2B2DE
:10461C00D340C3604A68C2F3813208498A5CD2B283
:10462C00B3FBF2F3036110BC704700BF00100240F3
:10463C0000127A0000093D00800100207C0100205E
:10464C0021B1054B5A69104358617047024A5369AE
:10465C0023EA0000506170470010024021B1054B65
:10466C009A69104398617047024A936923EA0000E3
:10467C00906170470010024021B1054BDA6910437C
:10468C00D8617047024AD36923EA0000D0617047B1
:10469C0000100240014B1860704700BF40044242BA
:1046AC004309012B02D10A4B1B6806E0022B02D1F5
:1046BC00074B1B6A01E0064B5B6A00F01F0023FAF4
:1046CC0000F010F0010F01D001207047002070475E
:1046DC000010024000B583B0002301933120FFF796
:1046EC00DFFF019B01330193019BB3F5A06F01D058
:1046FC000028F3D03120FFF7D3FF08B1012000E0F0
:10470C00002003B05DF804FB29B1064A13889BB264
:10471C00184310807047034A1388C04380B2184076
:10472C001080704700280040034A93889BB243F0E6
:10473C0010039380704700BF00280040034A938801
:10474C009BB223F010039BB293807047002800406B
:10475C000849088B82B28B8B9BB2088B80B2824249
:10476C0004D08B8B9BB243EA0040704743EA024073
:10477C00704700BF0028004010B50446FFF7D4FF77
:10478C00220C034B1A83A4B29C83FFF7D7FF10BDF6
:10479C000028004010B50446FFF7C6FFC4F30342DF
:1047AC00034B1A81A4B29C81FFF7C8FF10BD00BF58
:1047BC0000280040034B9B8803F020039BB2002B86
:1047CC00F8D0704700280040064A9388C1B20B40CD
:1047DC001288104202D01BB900207047002070478D
:1047EC000120704700280040034A9388C04380B2E0
:1047FC0003409380704700BF0028004003889BB2A1
:10480C00214A904212D002F5006290420ED0B0F1D3
:10481C00804F0BD0A2F59832904207D002F58062FF
:10482C00904203D002F58062904203D123F07003D2
:10483C004A881343154A904208D002F58062904290
:10484C0004D023F440739BB2CA88134303808B8833
:10485C0083850B8803850C4B98420FD003F50063BE
:10486C0098420BD003F54063984207D003F5806360
:10487C00984203D003F58063984201D10B7A0386EA
:10488C0001238382704700BF002C014000100040C0
:10489C004FF6FF73838000230380C3804380037231
:1048AC00704700BF29B103889BB243F0010303801A
:1048BC00704703889BB223F001039BB203807047BF
:1048CC0022B183899BB21943818170478389C94383
:1048DC0089B219408181704781847047028A83892B
:1048EC000B40114202D01BB90020704700207047CA
:1048FC0001207047C94389B20182704730B587B037
:10490C0004460D46038A9BB2CA8823F440531343D2
:10491C00038283899BB28A88098968890A43024386
:10492C0023F4B05323F00C031343A381A38A9BB24B
:10493C00AA8923F440731343A38201A8FFF722FE34
:10494C001E4B9C4201D1049A00E0039AA38913F4F4
:10495C00004F08D002EB820202EB82022968490068
:10496C00B2FBF1F107E002EB820202EB8202296852
:10497C008900B2FBF1F1124BA3FB01235B091B0174
:10498C001A09642000FB1212A18911F4004F08D0FF
:10499C00D20032320A49A1FB0212C2F342121A436C
:1049AC0007E0120132320649A1FB0212C2F3431294
:1049BC001A4392B2228107B030BD00BF00380140CB
:1049CC001F85EB5129B183899BB243F4005383813A
:1049DC00704783899BB223F400539BB28381704749
:1049EC0010B4C1F3421401F01F01012303FA01F1C9
:1049FC009C4201D10C3004E0022C01D1103000E0BB
:104A0C0014301AB103681943016003E0036823EA08
:104A1C000101016010BC7047C1F30801818070472F
:104A2C008088C0F30800704710B4C1F3421201F043
:104A3C001F040123A340012A03D1828992B213409F
:104A4C0008E0022A03D1028A92B2134002E0828A61
:104A5C0092B21340090A012202FA01F1028892B2C1
:104A6C00114013B119B9002002E0002000E0012030
:104A7C0010BC7047090A01238B409BB2DB439BB2ED
:104A8C000380704770B57C4C40212046FFF7A2FB99
:104A9C004FF480617948FFF79DFB80212046FFF79A
:104AAC0099FB4FF400412046FFF794FB042120466C
:104ABC00FFF792FB08212046FFF78EFB10212046C2
:104ACC00FFF78AFB20212046FFF786FB00220121FD
:104ADC002046FFF783FB002202212046FFF77EFBD6
:104AEC000120FDF773FE664C20800220FDF76EFE60
:104AFC0080B2644D238803EB002028800320FDF74F
:104B0C0065FE20800420FDF761FE80B2238803EB54
:104B1C00002068800720FDF759FE20800820FDF753
:104B2C0055FE80B2238803EB0020E8800920FDF7B6
:104B3C004DFE20800A20FDF749FE80B2238803EB4E
:104B4C00002028811F20FDF741FE20802020FDF74A
:104B5C003DFE80B223884FF46166C0EB00108200EA
:104B6C0006FB03232B620B20FDF730FE20800C206C
:104B7C00FDF72CFE80B22388C0EB0010820006FBF0
:104B8C000323EB610520FDF721FE20800620FDF7B5
:104B9C001DFE80B2238803EB0020A8800D20FDF7BA
:104BAC0015FE85F829000E20FDF710FE85F828006B
:104BBC000F20FDF70BFE20801020FDF707FE80B2C2
:104BCC002388C3EB03139A0006FB0026EE62112028
:104BDC00FDF7FCFD20801220FDF7F8FD80B2238844
:104BEC0003EB002068821320FDF7F0FD20801420D9
:104BFC00FDF7ECFD80B2238803EB0020A882152082
:104C0C00FDF7E4FD20801620FDF7E0FD80B223883F
:104C1C0003EB0020E8821720FDF7D8FD2080182038
:104C2C00FDF7D4FD80B2238803EB0020E881192026
:104C3C00FDF7CCFD20801A20FDF7C8FD80B223883B
:104C4C0003EB002028831B20FDF7C0FD20801C20D7
:104C5C00FDF7BCFD80B2238803EB002028821D20C9
:104C6C00FDF7B4FD20801E20FDF7B0FD80B2238837
:104C7C0003EB0020688170BD00080140001001406A
:104C8C0036040020C004002008B5FBF73BFBFCF702
:104C9C00A1FEFEF7BBFFFEF7D3FFFBF76FFAFBF7A6
:104CAC007DFAFBF7A3FAFBF78DFAFDF7C3FDFEF7D0
:104CBC00CBFEFDF7ADF9FEF72DFCFEF781FFFFF7FC
:104CCC00E1FE164B5B78012B04D1FBF789FC00222B
:104CDC00124B5A70FEF7C4F8FBF724FBFBF74EFCA3
:104CEC00FBF782FFFCF748FA0D4B1B782BB10D48F4
:104CFC00FEF70EFD00220A4B1A700B4B1B7813F0BB
:104D0C00FF0FDED0BFF34F8F0849CA6802F4E06290
:104D1C00074B1343CB60BFF34F8FFEE744040020D7
:104D2C0034040020AC0600204A04002000ED00E012
:104D3C000400FA05DFF834D0002103E00C4B5B587B
:104D4C00435004310B480C4B42189A42F6D30B4A91
:104D5C0002E0002342F8043B094B9A42F9D300F0DD
:104D6C008DF800F0B3F8FFF78FFF7047005000206C
:104D7C007C52000800000020F8010020F8010020FF
:104D8C00BC060020FEE70000704700BFFEE700BF36
:104D9C00FEE700BFFEE700BFFEE700BF704700BFA5
:104DAC00704700BF704700BF08B5FEF79DFF08BDF8
:104DBC0082B00023019300932C4A136843F4803390
:104DCC0013602A4B1B6803F400330093019B0133DF
:104DDC000193009B1BB9019BB3F5A06FF1D1234B41
:104DEC001B6813F4003F02D00123009301E0002361
:104DFC000093009B012B36D11D4B1A6842F0100218
:104E0C001A601A6822F003021A601A6842F0020251
:104E1C001A60A3F580535A685A605A685A605A68E7
:104E2C0042F480625A605A6822F47C125A605A68C2
:104E3C0042F4E8125A601A6842F080721A600B4B06
:104E4C001B6813F0007FFAD0084B5A6822F003025B
:104E5C005A605A6842F002025A60044B5B6803F0D5
:104E6C000C03082BF9D102B0704700BF00100240B0
:104E7C000020024008B5FFF79BFF08BD08B5104B9A
:104E8C001A6842F001021A6059680E4A0A405A60C8
:104E9C001A6822F0847222F480321A601A6822F4A2
:104EAC0080221A605A6822F4FE025A604FF41F02E4
:104EBC009A60FFF7DFFF4FF00062034B9A6008BD6A
:104ECC00001002400000FFF800ED00E00E4B70B542
:104EDC001E460E4C0025E41AA410A54204D056F828
:104EEC00253098470135F8E700F0B0F8084B094C2D
:104EFC001E46E41AA4100025A54204D056F825300D
:104F0C0098470135F8E770BD7452000874520008D8
:104F1C007452000878520008024B0146186800F0E1
:104F2C0017B800BFF401002010B5431E0A4491428B
:104F3C0004D011F8014B03F8014FF8E710BD0346FC
:104F4C000244934202D003F8011BFAE770470000B9
:104F5C0070B5CD1C25F0030508350C2D38BF0C257C
:104F6C00002D064601DBA94202D90C23336046E032
:104F7C0000F05CF8234B1C681A462146A1B10B6863
:104F8C005B1B0ED40B2B03D90B60CC18CD501EE041
:104F9C008C420BBF63684B681360636018BF0C4690
:104FAC0015E00C464968E9E7174C23681BB93046F5
:104FBC0000F02CF820602946304600F027F8431CFE
:104FCC0018D0C41C24F00304A0420DD12560304637
:104FDC0000F02DF804F10B00231D20F00700C31A7C
:104FEC000ED05A42E25070BD211A304600F00EF835
:104FFC000130EBD10C233360304600F018F8002060
:10500C0070BD00BF3C0400203804002038B5064CAD
:10501C00002305460846236000F00AF8431C02D121
:10502C00236803B12B6038BDB80600207047704769
:10503C00044B0246196809B90349196018680244FF
:10504C001A60704740040020BC060020F8B500BF71
:10505C00F8BC08BC9E467047F8B500BFF8BC08BC4D
:04506C009E467047A5
:1050700000C0C101C30302C2C60607C705C5C404F8
:10508000CC0C0DCD0FCFCE0E0ACACB0BC90908C868
:10509000D81819D91BDBDA1A1EDEDF1FDD1D1CDC58
:1050A00014D4D515D71716D6D21213D311D1D010C8
:1050B000F03031F133F3F23236F6F737F53534F4B8
:1050C0003CFCFD3DFF3F3EFEFA3A3BFB39F9F83828
:1050D00028E8E929EB2B2AEAEE2E2FEF2DEDEC2C18
:1050E000E42425E527E7E62622E2E323E12120E088
:1050F000A06061A163A3A26266A6A767A56564A478
:105100006CACAD6DAF6F6EAEAA6A6BAB69A9A868E7
:1051100078B8B979BB7B7ABABE7E7FBF7DBDBC7CD7
:10512000B47475B577B7B67672B2B373B17170B047
:105130005090915193535292965657975595945437
:105140009C5C5D9D5F9F9E5E5A9A9B5B99595898A7
:10515000884849894B8B8A4A4E8E8F4F8D4D4C8C97
:105160004484854587474686824243834181804007
:1051700000C1814001C0804101C0804100C1814027
:1051800001C0804100C1814000C1814001C0804117
:1051900001C0804100C1814000C1814001C0804107
:1051A00000C1814001C0804101C0804100C18140F7
:1051B00001C0804100C1814000C1814001C08041E7
:1051C00000C1814001C0804101C0804100C18140D7
:1051D00000C1814001C0804101C0804100C18140C7
:1051E00001C0804100C1814000C1814001C08041B7
:1051F00001C0804100C1814000C1814001C08041A7
:1052000000C1814001C0804101C0804100C1814096
:1052100000C1814001C0804101C0804100C1814086
:1052200001C0804100C1814000C1814001C0804176
:1052300000C1814001C0804101C0804100C1814066
:1052400001C0804100C1814000C1814001C0804156
:1052500001C0804100C1814000C1814001C0804146
:1052600000C1814001C0804101C0804100C1814036
:0452700043000000F7
:0452740031010008FC
:045278000D0100081C
:10527C0021020008040000002D02000800000000BC
:10528C002D020008000000002D02000800000000A4
:10529C002D0200080000000021020008040000009C
:1052AC0031020008010000002D020008000000007F
:1052BC00310200080100000031020008010000006A
:1052CC003502000803000000310200080100000054
:1052DC002D02000800000000290200080200000056
:1052EC002102000804000000350200080300000041
:1052FC002902000802000000290200080200000038
:10530C00350200080300000035020008030000000D
:10531C002502000805000000310200080100000011
:10532C002D0200080000000021020008040000000B
:10533C0021020008040000002502000805000000FE
:10534C0025020008050000002502000805000000E9
:10535C0025020008050000002502000805000000D9
:10536C0000A0000011000000512D000804000000F6
:10537C00E92C000803000000C92B000810000000F5
:10538C00712B000806000000412B000817000000DC
:10539C002D2C0008010000008529000805000000E4
:1053AC00FD2900080F000000612A0008020000001F
:1053BC00C92A0008000000000000000000000000E6
:1053CC0000000000000000000000000000000000D1
:1053DC0000000000000000000000000000000000C1
:1053EC0000000000020000000A0000000204060891
:1053FC00000000000102030401020304060708096F
:10540C0000A24A04000000000000000000000000A0
:10541C000000000000000000000000000000000080
:10542C0000000000705200080000000000000000A6
:10543C000000000000000000000000000000000060
:10544C000000000000000000000000000000000050
:10545C000000000000000000000000000000000040
:08546C00000000009401002083
:0400000508004D4161
:00000001FF
