:020000040800F2
:1000000000500020DD970008319800083D98000856
:10001000459800084D980008559800080000000019
:100020000000000000000000000000005D980008D3
:100030006998000800000000759800088198000881
:100040002D9800082D9800082D98000809700008C8
:100050002D9800082D9800088D390008AD3900084A
:10006000CD3900082D9800082D9800082D9800081B
:100070002D9800082D9800082D9800082D9800084C
:10008000914500080D4600082D9800082D9800089D
:100090002D9800082D9800082D980008AD3A00080A
:1000A0002D9800082D9800082D9800082D9800081C
:1000B0002D9800082D980008A15A00082D980008D6
:1000C0002D9800082D9800082D9800082D980008FC
:1000D0002D980008556000082D9800089D590008CB
:1000E000ED3900082D9800082D9800080000000048
:1000F0000000000000000000000000000000000000
:0C01000000000000000000005FF808F1A3
:1001100010B5054C237833B9044B13B10448AFF341
:1001200000800123237010BD0002002000000000A9
:1001300014A9000808B5034B1BB103490348AFF3EA
:10014000008008BD000000000402002014A900087F
:1001500081F0004102E000BF83F0004330B54FEA78
:1001600041044FEA430594EA050F08BF90EA020FE5
:100170001FBF54EA000C55EA020C7FEA645C7FEA78
:10018000655C00F0E2804FEA5454D4EB5555B8BF9B
:100190006D420CDD2C4480EA020281EA030382EA0C
:1001A000000083EA010180EA020281EA0303362D9E
:1001B00088BF30BD11F0004F4FEA01314FF4801C71
:1001C0004CEA113102D0404261EB410113F0004F83
:1001D0004FEA03334CEA133302D0524263EB43033A
:1001E00094EA050F00F0A780A4F10104D5F1200ED8
:1001F0000DDB02FA0EFC22FA05F2801841F1000133
:1002000003FA0EF2801843FA05F359410EE0A5F106
:1002100020050EF1200E012A03FA0EFC28BF4CF037
:10022000020C43FA05F3C01851EBE37101F00045ED
:1002300007D54FF0000EDCF1000C7EEB00006EEBFA
:100240000101B1F5801F1BD3B1F5001F0CD3490884
:100250005FEA30004FEA3C0C04F101044FEA4452DB
:1002600012F5800F80F09A80BCF1004F08BF5FEA62
:10027000500C50F1000041EB045141EA050130BD42
:100280005FEA4C0C404141EB010111F4801FA4F1E5
:100290000104E9D191F0000F04BF01460020B1FA3A
:1002A00081F308BF2033A3F10B03B3F120020CDA72
:1002B0000C3208DD02F1140CC2F10C0201FA0CF050
:1002C00021FA02F10CE002F11402D8BFC2F1200CB5
:1002D00001FA02F120FA0CFCDCBF41EA0C0190406B
:1002E000E41AA2BF01EB0451294330BD6FEA0404B4
:1002F0001F3C1CDA0C340EDC04F11404C4F120029F
:1003000020FA04F001FA02F340EA030021FA04F3B0
:1003100045EA030130BDC4F10C04C4F1200220FA07
:1003200002F001FA04F340EA0300294630BD21FA45
:1003300004F0294630BD94F0000F83F4801306BF0B
:1003400081F480110134013D4EE77FEA645C18BFFF
:100350007FEA655C29D094EA050F08BF90EA020F96
:1003600005D054EA000C04BF1946104630BD91EA8E
:10037000030F1EBF0021002030BD5FEA545C05D191
:100380004000494128BF41F0004130BD14F58004D0
:100390003CBF01F5801130BD01F0004545F0FE4144
:1003A00041F470014FF0000030BD7FEA645C1ABF79
:1003B000194610467FEA655C1CBF0B46024650EAB0
:1003C000013406BF52EA033591EA030F41F40021DC
:1003D00030BD00BF90F0000F04BF0021704730B562
:1003E0004FF4806404F132044FF000054FF0000137
:1003F00050E700BF90F0000F04BF0021704730B5F8
:100400004FF4806404F1320410F0004548BF4042CC
:100410004FF000013EE700BF42004FEAE2014FEA21
:1004200031014FEA02701FBF12F07F4393F07F4FFC
:1004300081F06051704792F0000F14BF93F07F4F2E
:10044000704730B54FF4607401F0004521F0004171
:1004500020E700BF50EA010208BF704730B54FF0F7
:1004600000050AE050EA010208BF704730B511F0FC
:10047000004502D5404261EB41014FF4806404F134
:1004800032045FEA915C3FF4DCAE4FF003025FEAB6
:10049000DC0C18BF03325FEADC0C18BF033202EB3E
:1004A000DC02C2F1200300FA03FC20FA02F001FA98
:1004B00003FE40EA0E0021FA02F11444C1E600BF37
:1004C00070B54FF0FF0C4CF4E06C1CEA11541DBFEA
:1004D0001CEA135594EA0C0F95EA0C0F00F0DEF8B5
:1004E0002C4481EA030621EA4C5123EA4C5350EA9A
:1004F000013518BF52EA033541F4801143F48013EB
:1005000038D0A0FB02CE4FF00005E1FB02E506F07B
:100510000042E0FB03E54FF00006E1FB03569CF0D0
:10052000000F18BF4EF0010EA4F1FF04B6F5007FD6
:1005300064F5407404D25FEA4E0E6D4146EB060648
:1005400042EAC62141EA55514FEAC52040EA5E50D1
:100550004FEACE2EB4F1FD0C88BFBCF5E06F1ED87B
:10056000BEF1004F08BF5FEA500E50F1000041EBB2
:10057000045170BD06F0004646EA010140EA02005F
:1005800081EA0301B4EB5C04C2BFD4EB0C0541EA81
:10059000045170BD41F480114FF0000E013C00F396
:1005A000AB8014F1360FDEBF002001F0004170BDBA
:1005B000C4F10004203C35DA0C341BDC04F11404D3
:1005C000C4F1200500FA05F320FA04F001FA05F25F
:1005D00040EA020001F0004221F0004110EBD3702C
:1005E00021FA04F642EB06015EEA430E08BF20EA58
:1005F000D37070BDC4F10C04C4F1200500FA04F3FB
:1006000020FA05F001FA04F240EA020001F000418C
:1006100010EBD37041F100015EEA430E08BF20EAFF
:10062000D37070BDC4F1200500FA05F24EEA020E47
:1006300020FA04F301FA05F243EA020321FA04F076
:1006400001F0004121FA04F220EA020000EBD3702D
:100650005EEA430E08BF20EAD37070BD94F0000F2D
:100660000FD101F00046400041EB010111F4801F61
:1006700008BF013CF7D041EA060195F0000F18BF12
:10068000704703F00046520043EB030313F4801F4E
:1006900008BF013DF7D043EA0603704794EA0C0F08
:1006A0000CEA135518BF95EA0C0F0CD050EA41061E
:1006B00018BF52EA4306D1D181EA030101F000419B
:1006C0004FF0000070BD50EA410606BF10461946C3
:1006D00052EA430619D094EA0C0F02D150EA0136CF
:1006E00013D195EA0C0F05D152EA03361CBF104610
:1006F00019460AD181EA030101F0004141F0FE41AF
:1007000041F470014FF0000070BD41F0FE4141F432
:10071000780170BD70B54FF0FF0C4CF4E06C1CEA32
:1007200011541DBF1CEA135594EA0C0F95EA0C0FE7
:1007300000F0A7F8A4EB050481EA030E52EA0335A2
:100740004FEA013100F088804FEA03334FF08055C3
:1007500045EA131343EA12634FEA022245EA1115F0
:1007600045EA10654FEA00260EF000419D4208BFA1
:10077000964244F1FD0404F5407402D25B084FEA4E
:100780003202B61A65EB03055B084FEA32024FF4FA
:1007900080104FF4002CB6EB020E75EB030E22BF57
:1007A000B61A754640EA0C005B084FEA3202B6EB17
:1007B000020E75EB030E22BFB61A754640EA5C00C6
:1007C0005B084FEA3202B6EB020E75EB030E22BF56
:1007D000B61A754640EA9C005B084FEA3202B6EB57
:1007E000020E75EB030E22BFB61A754640EADC0016
:1007F00055EA060E18D04FEA051545EA16754FEA78
:1008000006164FEAC30343EA52734FEAC2025FEA95
:100810001C1CC0D111F4801F0BD141EA00014FF024
:1008200000004FF0004CB6E711F4801F04BF0143F5
:100830000020B4F1FD0C88BFBCF5E06F3FF6AFAE11
:10084000B5EB030C04BFB6EB020C5FEA500C50F1A1
:10085000000041EB045170BD0EF0004E4EEA113124
:1008600014EB5C04C2BFD4EB0C0541EA045170BD2B
:1008700041F480114FF0000E013C90E645EA060E6F
:100880008DE60CEA135594EA0C0F08BF95EA0C0F9D
:100890003FF43BAF94EA0C0F0AD150EA01347FF4E5
:1008A00034AF95EA0C0F7FF425AF104619462CE7BC
:1008B00095EA0C0F06D152EA03353FF4FDAE10461F
:1008C000194622E750EA410618BF52EA43067FF470
:1008D000C5AE50EA41047FF40DAF52EA43057FF400
:1008E000EBAE12E74A0011D212F5001211D20DD56B
:1008F0006FF47873B3EB62520ED44FEAC12343F026
:10090000004343EA505323FA02F070474FF00000CF
:10091000704750EA013002D14FF0FF3070474FF07E
:10092000000070474FEA4102B2F1E04324BFB3F543
:10093000001CDCF1FE5C0DD901F0004C4FEAC00256
:100940004CEA5070B2F1004F40EB830008BF20F03A
:100950000100704711F0804F21D113F13872BCBFF4
:1009600001F00040704741F480114FEA5252C2F149
:100970001802C2F1200C10FA0CF320FA02F018BF92
:1009800040F001004FEAC1234FEAD32303FA0CFCE5
:1009900040EA0C0023FA02F34FEA4303CCE77FEA74
:1009A000625307D150EA01331EBF4FF0FE4040F4BE
:1009B0004000704701F0004040F0FE4040F400006D
:1009C000704700BF80F0004002E000BF81F00041AE
:1009D00042001FBF5FEA410392EA030F7FEA226CE5
:1009E0007FEA236C6AD04FEA1262D2EB1363C1BF75
:1009F000D218414048404140B8BF5B42192B88BFE4
:100A0000704710F0004F40F4000020F07F4018BF06
:100A1000404211F0004F41F4000121F07F4118BF26
:100A2000494292EA030F3FD0A2F1010241FA03FCCE
:100A300010EB0C00C3F1200301FA03F100F00043B6
:100A400002D5494260EB4000B0F5000F13D3B0F17E
:100A5000807F06D340084FEA310102F10102FE2AED
:100A600051D2B1F1004F40EBC25008BF20F001005D
:100A700040EA03007047490040EB000010F4000F0B
:100A8000A2F10102EDD1B0FA80FCACF1080CB2EB9E
:100A90000C0200FA0CF0AABF00EBC25052421843FD
:100AA000BCBFD0401843704792F0000F81F40001A2
:100AB00006BF80F400000132013BB5E74FEA410375
:100AC0007FEA226C18BF7FEA236C21D092EA030FE1
:100AD00004D092F0000F08BF0846704790EA010F5B
:100AE0001CBF0020704712F07F4F04D1400028BF88
:100AF00040F00040704712F100723CBF00F500006A
:100B0000704700F0004343F0FE4040F4000070479F
:100B10007FEA226216BF08467FEA2363014642024B
:100B200006BF5FEA412390EA010F40F4800070475E
:100B30004FF0000304E000BF10F0004348BF404204
:100B40005FEA000C08BF704743F0964301464FF040
:100B500000001CE050EA010208BF70474FF000039C
:100B60000AE000BF50EA010208BF704711F00043DD
:100B700002D5404261EB41015FEA010C02BF8446AD
:100B80000146002043F0B64308BFA3F18053A3F50C
:100B90000003BCFA8CF2083AA3EBC25310DB01FA53
:100BA00002FC634400FA02FCC2F12002BCF1004FD7
:100BB00020FA02F243EB020008BF20F00100704768
:100BC00002F1200201FA02FCC2F1200250EA4C00BC
:100BD00021FA02F243EB020008BF20EADC70704702
:100BE0004FF0FF0C1CEAD0521EBF1CEAD15392EA10
:100BF0000C0F93EA0C0F6FD01A4480EA010C4002EC
:100C000018BF5FEA41211ED04FF0006343EA501045
:100C100043EA5111A0FB01310CF00040B1F5000F87
:100C20003EBF490041EAD3715B0040EA010062F136
:100C30007F02FD2A1DD8B3F1004F40EBC25008BF20
:100C400020F00100704790F0000F0CF0004C08BF3E
:100C500049024CEA502040EA51207F3AC2BFD2F10B
:100C6000FF0340EAC250704740F400004FF0000319
:100C7000013A5DDC12F1190FDCBF00F00040704753
:100C8000C2F10002410021FA02F1C2F1200200FA91
:100C900002FC5FEA310040F1000053EA4C0308BF58
:100CA00020EADC70704792F0000F00F0004C02BFA9
:100CB000400010F4000F013AF9D040EA0C0093F024
:100CC000000F01F0004C02BF490011F4000F013B7E
:100CD000F9D041EA0C018FE70CEAD15392EA0C0FEC
:100CE00018BF93EA0C0F0AD030F0004C18BF31F057
:100CF000004CD8D180EA010000F00040704790F02D
:100D0000000F17BF90F0004F084691F0000F91F0D0
:100D1000004F14D092EA0C0F01D142020FD193EA96
:100D20000C0F03D14B0218BF084608D180EA01001E
:100D300000F0004040F0FE4040F40000704740F0FA
:100D4000FE4040F4400070474FF0FF0C1CEAD052C8
:100D50001EBF1CEAD15392EA0C0F93EA0C0F69D024
:100D6000A2EB030280EA010C49024FEA402037D08F
:100D70004FF0805343EA111143EA10130CF0004086
:100D80008B4238BF5B0042F17D024FF4000C8B4276
:100D900024BF5B1A40EA0C00B3EB510F24BFA3EB56
:100DA000510340EA5C00B3EB910F24BFA3EB910326
:100DB00040EA9C00B3EBD10F24BFA3EBD10340EA80
:100DC000DC001B0118BF5FEA1C1CE0D1FD2A3FF6C6
:100DD00050AF8B4240EBC25008BF20F0010070477B
:100DE0000CF0004C4CEA50207F32C2BFD2F1FF031E
:100DF00040EAC250704740F400004FF00003013A4F
:100E000037E792F0000F00F0004C02BF400010F4F2
:100E1000000F013AF9D040EA0C0093F0000F01F006
:100E2000004C02BF490011F4000F013BF9D041EA28
:100E30000C0195E70CEAD15392EA0C0F08D142025B
:100E40007FF47DAF93EA0C0F7FF470AF084676E72E
:100E500093EA0C0F04D14B023FF44CAF08466EE707
:100E600030F0004C18BF31F0004CCAD130F00042D5
:100E70007FF45CAF31F000437FF43CAF5FE700BF2D
:100E80004FEA4002B2F1FE4F0FD34FF09E03B3EB97
:100E900012620DD94FEA002343F0004310F0004FD7
:100EA00023FA02F018BF404270474FF0000070472D
:100EB00012F1610F01D1420205D110F0004008BFCC
:100EC0006FF0004070474FF00000704742000ED2B4
:100ED000B2F1FE4F0BD34FF09E03B3EB126209D475
:100EE0004FEA002343F0004323FA02F070474FF02B
:100EF0000000704712F1610F01D1420202D14FF0A0
:100F0000FF3070474FF00000704700BF80B582B0DF
:100F100000AF78603960064805F0E2FB054802F052
:100F200073F9054B01225A7000BF0837BD4680BDDA
:100F3000512400206E2500208824002080B582B036
:100F400002AF00230093044B01220121642006F02C
:100F5000EFF900BFBD4680BD0D0F000880B483B01F
:100F600000AF78603960044B01229A7000BF0C37E3
:100F7000BD4680BC704700BF8824002080B483B089
:100F800000AF78603960044B0122DA7000BF0C3783
:100F9000BD4680BC704700BF8824002080B483B069
:100FA00000AF78603960044B01221A7000BF0C3723
:100FB000BD4680BC704700BF8824002080B582B049
:100FC00002AF074B00229A7000230093054B0122C9
:100FD00001210A2006F0ACF900BFBD4680BD00BF6C
:100FE000882400205D0F000880B582B002AF074B57
:100FF0000022DA7000230093054B01220121012019
:1010000006F096F900BFBD4680BD00BF88240020D1
:101010007D0F000880B582B002AF074B00221A7026
:1010200000230093054B012201214FF47A7006F052
:101030007FF900BFBD4680BD882400209D0F0008B9
:1010400080B400AF00BFBD4680BC704780B400AF25
:1010500000BFBD4680BC704780B400AF00BFBD4636
:1010600080BC704780B400AF00BFBD4680BC7047F5
:1010700080B400AF00BFBD4680BC704780B400AFF5
:1010800000BFBD4680BC704780B582B000AF7860BD
:101090000B46FB70134B1B781946134A0B469B00FB
:1010A0000B44DB0013441B68002B17D00D4B1B783F
:1010B00019460D4A0B469B000B44DB0013441B688A
:1010C0009847084B1B781946074A0B469B000B4470
:1010D000DB00134404331A78024B1A7000BF083740
:1010E000BD4680BD1C0200200000002080B582B0FB
:1010F00000AF78600B46FB70144B1B781946144AFE
:101100000B469B000B44DB00134410331B68002B81
:1011100018D00E4B1B7819460D4A0B469B000B440A
:10112000DB00134410331B689847084B1B781946A3
:10113000074A0B469B000B44DB00134414331A7818
:10114000024B1A7000BF0837BD4680BD1C0200204C
:101150000000002080B582B000AF78600B46FB70C5
:10116000144B1B781946144A0B469B000B44DB00BA
:10117000134418331B68002B18D00E4B1B781946EC
:101180000D4A0B469B000B44DB00134418331B68CD
:101190009847084B1B781946074A0B469B000B449F
:1011A000DB0013441C331A78024B1A7000BF083757
:1011B000BD4680BD1C0200200000002080B582B02A
:1011C00000AF78600B46FB70144B1B781946144A2D
:1011D0000B469B000B44DB00134420331B68002BA1
:1011E00018D00E4B1B7819460D4A0B469B000B443A
:1011F000DB00134420331B689847084B1B781946C3
:10120000074A0B469B000B44DB00134424331A7837
:10121000024B1A7000BF0837BD4680BD1C0200207B
:101220000000002080B584B002AF002300934FF48B
:10123000165300220321002003F054FF0346FB71E4
:1012400003F0CCFF0346FB71FB7918460837BD4617
:1012500080BD00BF80B483B000AF03460A46FB7177
:101260001346BB80FB790449BA8821F8132000BFDC
:101270000C37BD4680BC70472002002080B582B08C
:1012800000AF244B5B6B1846FFF720FE03469BB272
:1012900019465120FFF7DEFF1E4B9B6BFA1C391DD0
:1012A000184604F073FF7B689BB219465220FFF783
:1012B000D1FFFB789BB219465320FFF7CBFF154BAC
:1012C0001B6CFA1C391D184604F0A6FF7B689BB204
:1012D00019465420FFF7BEFFFB789BB219465520F4
:1012E000FFF7B8FF0B4BDB6BFA1C391D184604F0F7
:1012F000FBFF7B689BB219465620FFF7ABFFFB78DC
:101300009BB219465720FFF7A5FF00BF0837BD461F
:1013100080BD00BF5825002090B583B000AF0C4BB6
:10132000D3E900014FF000020A4BFFF7C9F803466A
:101330000C4618462146FFF7D5FA0346FB80FB888A
:1013400019460520FFF786FF00BF0C37BD4690BD4C
:10135000382700200000594080B500AF72B6B94B65
:10136000DB8A19460120FFF775FFB64B1B8B194628
:101370000220FFF76FFFB34B5B8B19460320FFF78B
:1013800069FFB04B9B8B19460420FFF763FFFFF703
:10139000C3FFAD4B5B689B099BB203F001039BB29B
:1013A00019460B20FFF756FFA74B5B68DB099BB282
:1013B00003F001039BB219460C20FFF74BFFA24B31
:1013C0005B689B0A9BB203F001039BB219460D2098
:1013D000FFF740FF9B4B93F821309BB219460E203C
:1013E000FFF738FF974B93F821309BB219460F2037
:1013F000FFF730FF934B93F821309BB21946102032
:10140000FFF728FF8F4B93F821309BB2194611202C
:10141000FFF720FF8B4B93F821309BB21946122027
:10142000FFF718FF874B93F826309BB219461D2013
:10143000FFF710FF2021854806F028FE0346002B09
:101440000CBF01230023DBB29BB219461320FFF728
:1014500001FF20217D4806F019FE0346002B0CBF3A
:1014600001230023DBB29BB219461420FFF7F2FEE2
:101470004FF40071764806F009FE0346002B0CBFBE
:1014800001230023DBB29BB219461520FFF7E2FED1
:101490004FF400716E4806F0F9FD0346002B0CBFB7
:1014A00001230023DBB29BB219461620FFF7D2FEC0
:1014B0000421684806F0EAFD03469BB2194617204E
:1014C000FFF7C8FE0421634806F0E0FD03469BB227
:1014D00019461820FFF7BEFE04215E4806F0D6FD2F
:1014E00003469BB219461920FFF7B4FE0421594860
:1014F00006F0CCFD03469BB219461A20FFF7AAFE60
:101500000221544806F0C2FD03469BB219461B2037
:10151000FFF7A0FE01214F4806F0B8FD03469BB23D
:1015200019461C20FFF796FE474B5B681B0C9BB2CD
:1015300019461F20FFF78EFE434B5B689BB219468E
:101540002020FFF787FE444B1B789BB219464820AA
:10155000FFF780FE404B5B789BB219464920FFF7AE
:1015600079FE3D4B9B789BB219464A20FFF772FEED
:10157000394BDB789BB219464B20FFF76BFE364B9D
:101580001B799BB219464C20FFF764FE324BDB8877
:1015900019464D20FFF75EFE304B9B789BB21946F3
:1015A0004E20FFF757FE2D4B5B789BB219464F201C
:1015B000FFF750FE294B1B789BB219465020FFF7CE
:1015C00049FE264B1B789BB219465020FFF742FE7E
:1015D000FFF754FE224BB3F866309AB2214B1A80C3
:1015E0001F4BB3F868309AB21E4B5A801C4BB3F8AD
:1015F0006A309AB21B4B9A80194BB3F86C309AB28E
:10160000184BDA80164BB3F86E309AB2154B1A812C
:10161000134BB3F870309AB2124B5A81104BB3F897
:1016200072309AB20F4B9A810D4BB3F874309AB264
:101630000C4BDA810A4BB3F876309AB2094B1A8216
:1016400012E000BF5825002050250020000C01406A
:101650000010014000080140F4240020DC24002098
:101660002002002098240020234BB3F878309AB24F
:10167000224B5A82204BB3F87A309AB21F4B9A828F
:101680001D4BB3F87C309AB21C4BDA821A4BB3F87C
:101690007E309AB2194B1A83174BB3F880309BB245
:1016A0001A46164BDA61144BB3F882309BB21A46D5
:1016B000124B1A62104BB3F884309BB21A460F4B90
:1016C0005A620D4BB3F886309BB2DAB20B4B83F8FB
:1016D0002820094BB3F888309BB2DAB2074B83F865
:1016E0002920054BB3F88A309BB21A46034BDA62C5
:1016F00062B600BF80BD00BF2002002098240020F9
:1017000080B400AF72B6274BB3F84A309AB2264B7A
:101710001A80244BB3F84C309AB2234B5A80214B99
:10172000B3F84E309AB2204B9A801E4BB3F850302B
:101730009AB21D4BDA801B4BB3F852309AB21A4B57
:101740001A81184BB3F854309AB2174B5A81154B83
:10175000B3F856309AB2144B9A81124BB3F8583002
:101760009AB2114BDA810F4BB3F85A309AB20E4B42
:101770001A820C4BB3F85C309AB20B4B5A82094B6D
:10178000B3F85E309AB2084B9A82064BB3F88C30AD
:101790009BB2DAB2054B1A7062B600BFBD4680BC80
:1017A000704700BF2002002058250020942400200C
:1017B00080B584B000AF9E4B1B8819469D4B1B889B
:1017C0009BB21A4613469B0013445B0099420FD00C
:1017D000984B1B889BB21A46920013445B009AB246
:1017E000934B1A80924B1B881946012002F05EFF32
:1017F0008F4B5B8819468F4B5B889BB21A4613460A
:101800009B0013445B0099420FD08A4B5B889BB2CC
:101810001A46920013445B009AB2854B5A80844B5F
:101820005B881946032002F041FF814B1B89194652
:10183000804B1B899BB21A4613469B0013445B00E6
:1018400099420FD07B4B1B899BB21A4692001344DE
:101850005B009AB2764B1A81754B1B891946092099
:1018600002F024FF724B9B881946724B9B889BB2F7
:101870001A4613469B0013445B0099420FD06D4BF0
:101880009B889BB21A46920013445B009AB2684B45
:101890009A80674B9B881946052002F007FF644B2E
:1018A0005A89644B5B899BB29A420AD0614B5B892F
:1018B0009AB25F4B5A815E4B5B8919461D2002F03C
:1018C000F5FE5B4B9A895B4B9B899BB29A420AD08F
:1018D000584B9B899AB2564B9A81554B9B89194616
:1018E000212002F0E3FE524BDA89524BDB899BB296
:1018F0009A420AD04F4BDB899AB24D4BDA814C4B5E
:10190000DB891946172002F0D1FE494B1A8A494B50
:101910001B8A9BB29A420AD0464B1B8A9AB2444B0E
:101920001A82434B1B8A19461B2002F0BFFE404B14
:101930005A8A404B5B8A9BB29A420AD03D4B5B8AE3
:101940009AB23B4B5A823A4B5B8A1946112002F0FD
:10195000ADFE374B9A8A374B9B8A9BB29A420AD08C
:10196000344B9B8A9AB2324B9A82314B9B8A1946EE
:10197000132002F09BFE2E4BDA8A2E4BDB8A9BB2A1
:101980009A420AD02B4BDB8A9AB2294BDA82284B37
:10199000DB8A1946152002F089FE254B1A8B254B50
:1019A0001B8B9BB29A420AD0224B1B8B9AB2204BC4
:1019B0001A831F4B1B8B1946192002F077FE1C4B14
:1019C000DA691C4BDB699A4224D01A4BDB69184A4E
:1019D000D361174BDB69184AA2FB0312D20A4FF4FA
:1019E000616101FB02F29B1AFB60114BDB69124A39
:1019F000A2FB0323DB0ADBB219460B2002F072FEC6
:101A0000FB680E4AA2FB03235B09DBB219460C20DC
:101A100002F068FE064B1A6A064B1B6A9A422ED0E9
:101A2000044B1B6A024A1362014B1B6A08E000BFA9
:101A30000C25002098240020C5B3A29189888888AD
:101A40003D4AA2FB0312D20A4FF4616101FB02F28C
:101A50009B1ABB60394B1B6A374AA2FB0323DB0A84
:101A6000DBB219461F2002F03DFEBB68344AA2FBE0
:101A700003235B09DBB21946202002F033FE2F4B13
:101A80005A6A304B5B6A9A4224D02E4B5B6A2B4ACF
:101A900053622A4B5B6A284AA2FB0312D20A4FF414
:101AA000616101FB02F29B1A7B60244B5B6A224A54
:101AB000A2FB0323DB0ADBB21946232002F012FE4D
:101AC0007B681F4AA2FB03235B09DBB21946242073
:101AD00002F008FE194B93F828201A4B93F828308F
:101AE000DBB29A420DD0174B93F82830DAB2134B81
:101AF00083F82820114B93F8283019460E2002F065
:101B0000F1FD0E4B93F829200E4B93F82930DBB2F0
:101B10009A420DD00B4B93F82930DAB2074B83F879
:101B20002920064B93F8293019460D2002F0DAFDE2
:101B300000BF1037BD4680BDC5B3A2910C25002063
:101B4000898888889824002080B483B000AF7860AA
:101B50000B467B8013463B80012318460C37BD465D
:101B600080BC704780B487B000AFF860084611466B
:101B70001A4603467B810B463B811346FB710023CB
:101B8000FB757B8949F64042934257D97A893B8954
:101B9000134449F69942934250DC7B892B4A1288C0
:101BA0009B1A3B61FB79002B1ED0012B41D047E0F3
:101BB000FB685A1CFA6026493A6931F8122092B241
:101BC000120A92B2D2B21A70FB685A1CFA6020490B
:101BD0003A6931F8122092B2D2B21A703B690133DD
:101BE0003B613B89013B3B813B89002BE0D124E0F9
:101BF000FB685A1CFA601B789BB21B0299B2144A0C
:101C00003B6922F81310FB685A1CFA601978104AD5
:101C10003B6932F813309AB28BB2134399B20C4A33
:101C20003B6922F813103B6901333B613B89013B5F
:101C30003B813B89002BDBD100BF01E00123FB7519
:101C4000FB7D18461C37BD4680BC7047F000002065
:101C50002002002080B485B000AFF860084611462D
:101C60001A4603467B810B463B811346FB710123D9
:101C700018461437BD4680BC704700BF80B483B09F
:101C800000AF78600B467B8013463B8001231846EB
:101C90000C37BD4680BC704780B500AF224B1B7827
:101CA000012B3FD1214B1B78032B09D9002001F0D8
:101CB00069FC012001F066FC1C4B00221A7005E053
:101CC0001A4B1B780133DAB2184B1A7000F034F853
:101CD000174800F0B3F900F02FFA00F077FB00F09E
:101CE000DDF800F033F800F07DF800F0A9F800F01E
:101CF00095FC00F043F90F4B1B78032B05D904F03A
:101D000005FA0C4B00221A7005E00A4B1B780133D0
:101D1000DAB2084B1A7000F001F900F05DF9024BDD
:101D200000221A7000BF80BD88240020D924002022
:101D300076250020D824002080B500AF024804F0AA
:101D400051FF00BF80BD00BFF424002080B500AF6C
:101D5000224B9B78002B38D1204B3B229A701F4B93
:101D60005B78002B2AD11D4B3B225A701B4B1B78F2
:101D7000002B1CD11A4B9B7A012B03D1184B00224C
:101D80009A7202E0164B01229A720B2002F074FC48
:101D900003461A46114B1A700C2002F06DFC0346E4
:101DA0001A460E4B5A700D4B00229A7013E00B4BE3
:101DB0001B78013BDAB2094B1A700CE0074B5B78D9
:101DC000013BDAB2054B5A7005E0044B9B78013BAE
:101DD000DAB2024B9A7000BF80BD00BFDC24002045
:101DE000FC24002080B400AF134B5B79012B1ED183
:101DF000124B5B79002B14D1104B3B225A710F4BC5
:101E00001B79002B06D10C4B00225A710B4B002280
:101E10005A710CE0094B1B79013BDAB2074B1A717E
:101E200005E0064B5B79013BDAB2044B5A7100BF07
:101E3000BD4680BC704700BFFC240020DC2400208D
:101E400080B400AF134B9B79012B1ED1124B1B7A30
:101E5000002B14D1104B3B221A720F4BDB79002B55
:101E600006D10C4B00229A710B4B00221A720CE027
:101E7000094BDB79013BDAB2074BDA7105E0064B1F
:101E80001B7A013BDAB2044B1A7200BFBD4680BC1C
:101E9000704700BFFC240020DC24002080B500AF88
:101EA0001C4B1B79012B33D11B4B9B7B002B29D166
:101EB000194B3B229A73184B5B7B002B1BD1164BA3
:101EC0003B225A73144B1B7B002B21D1114B002258
:101ED0001A710F2002F0D0FB03461A460E4B1A73FC
:101EE000102002F0C9FB03461A460B4B5A730A4BEB
:101EF00000229A730CE0084B5B7B013BDAB2064B85
:101F00005A7305E0044B9B7B013BDAB2024B9A7398
:101F100000BF80BDFC240020DC24002080B400AF82
:101F2000144B1B7A012B21D1134BDB7A002B17D1D9
:101F3000114B3B22DA72104B9B7A002B09D10D4BCF
:101F400000221A720C4B0022DA720A4B01225A72DA
:101F50000CE0094B9B7A013BDAB2074B9A7205E021
:101F6000054BDB7A013BDAB2034BDA7200BFBD46A8
:101F700080BC7047FC240020DC24002080B400AF2B
:101F8000134B9B78012B1ED1124B1B7D002B14D1C0
:101F9000104B3B221A750F4BDB7C002B06D10C4BF0
:101FA00000229A700B4B00221A750CE0094BDB7C67
:101FB000013BDAB2074BDA7405E0064B1B7D013BAF
:101FC000DAB2044B1A7500BFBD4680BC704700BF33
:101FD000FC240020DC24002080B500AF154BDB7A08
:101FE000012B25D1134B1B7B002B1BD1114B002246
:101FF000DA72104B0022DA700E4B1B79002B17D1CE
:102000000C4B01221A71102002F036FB03461A46CF
:10201000094B1A730F2002F02FFB03461A46064B9A
:102020005A7305E0034B1B7B013BDAB2014B1A7379
:1020300000BF80BDFC240020DC24002080B582B0DD
:1020400000AF786002213A4806F006F80346002BFC
:102050000CBF01230023DBB21A467B68DA70022131
:10206000334805F0F9FF0346002B0CBF0123002382
:10207000DBB21A467B681A7102212D4805F0ECFF8D
:102080000346002B0CBF01230023DBB21A467B68FA
:102090005A710221264805F0DFFF0346002B0CBFD2
:1020A00001230023DBB21A467B689A710221204883
:1020B00005F0D2FF0346002B0CBF01230023DBB247
:1020C0001A467B68DA710821194805F0C5FF0346F6
:1020D0001A467B681A701021154805F0BDFF0346AB
:1020E0001A467B689A700121114805F0B5FF034636
:1020F0001A467B685A7004210D4805F0ADFF03466F
:102100001A467B681A7202210A4805F0BFFF03468F
:102110001A467B685A740121064805F0B7FF03464A
:102120001A467B689A7400BF0837BD4680BD00BF61
:10213000001001400008014080B400AF7E4B1A88B7
:102140007E4B9B899A420DD97D4B5B68DB0A03F07D
:102150000103002B06D17A4B5B6843F40063784A95
:10216000536012E0744B1A88744B9B899A420CD2CC
:10217000734B5B68DB0A03F00103002B05D0704B47
:102180005B6823F400636E4A53606B4B1A886B4B99
:102190005B899A420DD26A4B5B681B0B03F001030B
:1021A000002B06D1664B5B6843F48053644A53604E
:1021B00012E0614B1A88614B5B899A420CD9604BE3
:1021C0005B681B0B03F00103002B05D05C4B5B68C5
:1021D00023F480535A4A5360574B5A88574BDB8934
:1021E0009A420DD2564B5B689B0B03F00103002B08
:1021F00006D1534B5B6843F48043514A536012E06D
:102200004D4B5A884D4BDB899A420CD94C4B5B683D
:102210009B0B03F00103002B05D0494B5B6823F4B3
:102220008043474A5360444B9A89444B1B8B9A42E4
:102230000DD2434B5B68DB0B03F00103002B06D18F
:102240003F4B5B6843F400433D4A536012E03A4B16
:102250009A893A4B1B8B9A420CD9394B5B68DB0B42
:1022600003F00103002B05D0354B5B6823F40043DA
:10227000334A5360304B9A88304B1B8A9A420DD2B6
:102280002F4B5B681B0C03F00103002B06D12C4B7A
:102290005B6843F480332A4A536012E0264B9A88E5
:1022A000264B1B8A9A420CD9254B5B681B0C03F00A
:1022B0000103002B05D0224B5B6823F48033204AB6
:1022C00053601D4BDA881D4B5B8A9A420DD21C4B22
:1022D0005B685B0C03F00103002B06D1184B5B68B5
:1022E00043F40033164A536012E0134BDA88134B61
:1022F0005B8A9A420CD9124B5B685B0C03F00103BA
:10230000002B05D00E4B5B6823F400330C4A53605E
:10231000094B5A89094BDB8A9A4213D2084B5B68F6
:102320009B0C03F00103002B0CD1054B5B6843F4BD
:102330008023034A536018E0582500200C25002014
:10234000502500201E4B5A891E4BDB8A9A420CD91D
:102350001D4B5B689B0C03F00103002B05D01A4B4F
:102360005B6823F48023184A5360154B1A89154B78
:102370009B8A9A420CD2144B5B68DB0C03F001037E
:10238000002B05D1104B5B6843F400230E4A5360C9
:102390000B4B1A890B4B9B8A9A420CD90A4B5B68F0
:1023A000DB0C03F00103002B05D0074B5B6823F423
:1023B0000023054A536000BFBD4680BC704700BF84
:1023C000582500200C2500205025002080B400AFA7
:1023D0008E4B9B7F1A468E4B5B689B0903F0010373
:1023E0009A4223D1894B9B7F002B06D1884B5B6897
:1023F00043F04003864A536005E0854B5B6823F059
:102400004003834A5360814B9B7F002B0BD1804B51
:1024100006221A707F4BDB6ADAB27F4B1A737E4B4F
:102420000122DA7202E07A4B01221A70774BDB7FCD
:102430001A46774B5B68DB0903F001039A4223D10C
:10244000724BDB7F002B06D1714B5B6843F080033E
:102450006F4A536005E06E4B5B6823F080036C4A63
:1024600053606A4BDB7F002B0BD1694B06221A703D
:10247000684BDB6ADAB2684B1A73674B0122DA7277
:1024800002E0634B01221A70604B93F82130002B5D
:1024900013D15E4B93F82230002B0ED15B4B93F897
:1024A0002330002B09D1594B93F82430002B04D151
:1024B000564B93F82530002B18D0554B5B681B0A00
:1024C00003F00103002B11D1514B06221A70504B1F
:1024D0005B6843F480734E4A53604E4BDB6ADAB25A
:1024E0004D4B1A734C4B0122DA7228E0474B93F89C
:1024F0002130002B23D1454B93F82230002B1ED1E5
:10250000424B93F82330002B19D1404B93F82430E1
:10251000002B14D13D4B93F82530002B0FD13C4BB1
:102520005B681B0A03F00103002B08D0384B5B6883
:1025300023F48073364A5360354B01221A70334BB3
:1025400093F826301A46324B5B685B0A03F00103AE
:102550009A4225D02D4B93F82630002B06D02C4BD9
:102560005B6843F400732A4A536005E0284B5B68BC
:1025700023F40073264A5360244B93F82630002B33
:102580000BD0234B06221A70224BDB6ADAB2224BA5
:102590001A73214B0122DA7202E01D4B01221A70DC
:1025A0001A4B93F820301A46194B5B689B0A03F0CC
:1025B00001039A4225D0154B93F82030002B06D00A
:1025C000134B5B6843F48063114A536005E0104B82
:1025D0005B6823F480630E4A53600C4B93F8203001
:1025E000002B0BD00A4B06221A700A4BDB6ADAB2B8
:1025F000094B1A73084B0122DA7202E0044B0122E4
:102600001A7000BFBD4680BC704700BF582500202F
:10261000502500200C250020FC24002080B400AFB1
:102620006F4B1A8B6F4BDB889A4210D26E4B5B68F4
:102630001B0903F00103002B09D16B4B5B6843F0CE
:102640001003694A5360684B06221A70C3E0644B5A
:102650001A8B644BDB889A4210D9634B5B681B0969
:1026600003F00103002B09D05F4B5B6823F01003DC
:102670005D4A53605C4B01221A70ACE0584B1A8BD8
:10268000584B1B899A4210D9574B5B685B0903F082
:102690000103002B09D1544B5B6843F02003524ADD
:1026A0005360514B06221A7095E04D4B1A8B4D4BDF
:1026B0001B899A4210D24C4B5B685B0903F0010303
:1026C000002B09D0484B5B6823F02003464A536037
:1026D000454B01221A707EE0414BDA8A414B1B8840
:1026E0009A4210D2404B5B689B0803F00103002B19
:1026F00009D13D4B5B6843F004033B4A53603A4BBE
:1027000006221A7067E0364BDA8A364B1B889A42EB
:1027100026D3334BDA8A334B5B889A4220D8324B2C
:102720005B689B0803F00103002B08D02E4B5B680D
:1027300023F004032C4A53602B4B01221A702A4BBE
:102740005B685B0803F00103002B44D0264B5B68F9
:1027500023F00203244A5360234B01221A703AE00B
:102760001F4BDA8A1F4B5B889A4223D91C4BDA8AAB
:102770001C4B9B889A421DD81B4B5B685B0803F07F
:102780000103002B08D1184B5B6843F00203164A83
:102790005360154B06221A70134B5B68DB0803F07D
:1027A0000103002B17D0104B5B6823F008030E4A7F
:1027B000536010E00C4B5B68DB0803F00103002B57
:1027C00009D1094B5B6843F00803074A5360064B85
:1027D00006221A70FFE700BFBD4680BC704700BFED
:1027E000582500200C2500205025002080B400AF83
:1027F000294B5B689B0903F00103002B45D1264B55
:102800005B68DB0903F00103002B3ED1224B5B68C0
:102810001B0A03F00103002B37D11F4B5B685B0AD7
:1028200003F00103002B30D11B4B5B689B0A03F0C4
:102830000103002B29D1184B5B681B0903F001032E
:10284000002B22D1144B5B685B0903F00103002BC2
:102850001BD1114B5B689B0B03F00103002B14D1C0
:102860000D4B5B685B0803F00103002B0DD10A4B95
:102870005B689B0803F00103002B06D1064B5B68E5
:10288000DB0803F00103002B01D0012300E000234B
:102890001846BD4680BC70475025002080B400AF6C
:1028A000144B5B689B0903F00103002B1BD1114BF8
:1028B0005B68DB0903F00103002B14D10D4B5B684F
:1028C0001B0A03F00103002B0DD10A4B5B685B0A66
:1028D00003F00103002B06D1064B5B689B0A03F053
:1028E0000103002B01D0012300E000231846BD4660
:1028F00080BC70475025002080B588B000AF974B52
:102900005B689B0903F00103002B06D1934B5B68C6
:10291000DB0903F00103002B2CD02021904805F0A7
:10292000CFFB4FF480618F4805F0CAFB4FF4007174
:102930008C4805F0C5FB4FF480718A4805F0C0FB58
:10294000894B00221A70884B00225A700421874854
:1029500005F0C4FB0821854805F0C0FB40218148F3
:1029600005F0BCFB80217F4805F0B8FB7E4B0022C0
:102970009A7087E37E4BDA8A7E4B1B889A426AD232
:10298000794B5B79012B0DD1774B1B78012B09D14A
:102990002021734805F0A2FB4FF48061714805F0D7
:1029A0009DFB0BE020216E4805F08AFB4FF480610F
:1029B0006C4805F085FB6C4B00221A706A4B9B79C2
:1029C000012B0ED1684B5B78012B0AD14FF40071BB
:1029D000644805F083FB4FF48071624805F07EFB8C
:1029E0000CE04FF400715F4805F06AFB4FF4807112
:1029F0005C4805F065FB5C4B00225A705A4BDB7952
:102A0000012B14D1584B9B78002B10D00421574830
:102A100005F056FB0821554805F052FB402151486E
:102A200005F04EFB80214F4805F04AFB2AE30421C4
:102A30004E4805F053FB08214C4805F04FFB402160
:102A4000484805F04BFB8021464805F047FB464BC4
:102A500000229A7016E3464BDA8A464B1B889A424C
:102A6000C0F02B81424BDA8A424B5B889A4200F2DB
:102A700024813D4B9B7A012B40F084803A4B5B795B
:102A8000012B0DD1384B1B78012B09D12021344863
:102A900005F024FB4FF48061324805F01FFB0BE08A
:102AA00020212F4805F00CFB4FF480612D4805F0E4
:102AB00007FB2D4B00221A702B4B9B79002B3ED12C
:102AC000294B5B78002B3AD12A4B1B6A2A4AA2FB7E
:102AD0000312D20A4FF4616101FB02F29B1AFB61FF
:102AE0004FF400711F4805F0F9FA4FF480711D484A
:102AF00005F0F4FA1C4B01225A701B4B01229A710B
:102B00001C4B1B6A1C4AA2FB0323DB0ADAB21B4BD9
:102B10009A71FB691A4AA2FB03235B09DAB2174BCD
:102B2000DA71F969164BA3FB01235A0913461B01FD
:102B30009B1A9B00CA1AD2B2104B1A7290E04FF443
:102B40000071084805F0CAFA4FF48071054805F095
:102B5000C5FA054B01225A7082E000BF50250020C3
:102B6000000C014000100140FC240020000801403E
:102B7000582500200C250020C5B3A291DC2400209C
:102B800089888888AF4B5B79002B3DD1AD4B1B7892
:102B9000002B39D12021AC4805F0A0FA4FF4806118
:102BA000AA4805F09BFAA74B01221A70A54B0122F7
:102BB0005A71A74B1B6AA74AA2FB0312D20A4FF411
:102BC000616101FB02F29B1ABB61A14B1B6AA14A26
:102BD000A2FB0323DB0ADAB29F4BDA70BB699F4A80
:102BE000A2FB03235B09DAB29B4B1A71B9699B4BB9
:102BF000A3FB01235A0913461B019B1A9B00CA1A07
:102C0000D2B2954B5A710BE020218F4805F066FA3D
:102C10004FF480618D4805F061FA8A4B01221A70E9
:102C2000884B9B79012B0ED1864B5B78012B0AD107
:102C30004FF40071854805F051FA4FF480718348D4
:102C400005F04CFA0CE04FF40071804805F038FABA
:102C50004FF480717D4805F033FA7A4B00225A70A8
:102C6000784BDB79012B14D1764B9B78012B10D15B
:102C700004217B4805F024FA0821794805F020FA60
:102C80004021724805F01CFA8021704805F018FABE
:102C9000F8E10421724805F021FA0821704805F096
:102CA0001DFA4021694805F019FA8021674805F0AE
:102CB00015FA644B00229A70E4E16A4BDA8A644B9D
:102CC0005B889A4240F2E480664BDA8A604B9B88CC
:102CD0009A4200F2DD805B4B5B79002B3DD1594B72
:102CE0001B78002B39D12021574805F0F7F94FF414
:102CF0008061564805F0F2F9524B01221A70514B8F
:102D000001225A71524B1B6A524AA2FB0312D20A89
:102D10004FF4616101FB02F29B1A7B614C4B1B6A11
:102D20004C4AA2FB0323DB0ADAB24B4BDA707B6915
:102D30004A4AA2FB03235B09DAB2474B1A7179694D
:102D4000464BA3FB01235A0913461B019B1A9B0008
:102D5000CA1AD2B2404B5A710BE020213A4805F012
:102D6000BDF94FF48061394805F0B8F9354B0122BF
:102D70001A70344B9B79002B3ED1324B5B78002B81
:102D80003AD14FF40071314805F0A8F94FF4807141
:102D90002E4805F0A3F92B4B01225A70294B012232
:102DA0009A712B4B1B6A2B4AA2FB0312D20A4FF4D7
:102DB000616101FB02F29B1A3B61254B1B6A254AAC
:102DC000A2FB0323DB0ADAB2234B9A713B69234A45
:102DD000A2FB03235B09DAB21F4BDA7139691F4B7F
:102DE000A3FB01235A0913461B019B1A9B00CA1A15
:102DF000D2B2194B1A720CE04FF40071134805F06F
:102E00006DF94FF48071114805F068F90D4B0122FE
:102E10005A700C4BDB79012B26D10A4B9B78012B86
:102E200022D104210E4805F04BF908210C4805F089
:102E300047F94021054805F043F98021034805F092
:102E40003FF91FE1FC240020000C0140001001406C
:102E50000C250020C5B3A291DC2400208988888835
:102E600000080140582500200421B04805F036F93B
:102E70000821AE4805F032F94021AD4805F02EF9A1
:102E80008021AB4805F02AF9AA4B00229A70F9E09C
:102E9000A84B5B79002B3DD1A64B1B78002B39D179
:102EA0002021A54805F01AF94FF48061A04805F0EB
:102EB00015F9A04B01221A709E4B01225A719F4BAB
:102EC0001B6A9F4AA2FB0312D20A4FF4616101FB05
:102ED00002F29B1AFB60994B1B6A994AA2FB0323DF
:102EE000DB0ADAB2974BDA70FB68974AA2FB03233E
:102EF0005B09DAB2934B1A71F968934BA3FB012378
:102F00005A0913461B019B1A9B00CA1AD2B28D4B59
:102F10005A710BE02021884805F0E0F84FF48061F9
:102F2000834805F0DBF8834B01221A70814B9B79B3
:102F3000002B3ED17F4B5B78002B3AD14FF40071D0
:102F40007B4805F0CBF84FF48071794805F0C6F85E
:102F5000784B01225A70774B01229A71774B1B6A8A
:102F6000774AA2FB0312D20A4FF4616101FB02F21D
:102F70009B1ABB60714B1B6A714AA2FB0323DB0ADD
:102F8000DAB2704B9A71BB686F4AA2FB03235B09EC
:102F9000DAB26C4BDA71B9686B4BA3FB01235A09A7
:102FA00013461B019B1A9B00CA1AD2B2654B1A72B8
:102FB0000CE04FF400715E4805F090F84FF480711A
:102FC0005B4805F08BF85B4B01225A70594BDB795B
:102FD000002B44D1574B9B78002B40D10421534800
:102FE00005F06EF80821514805F06AF84021504874
:102FF00005F066F880214E4805F062F84D4B01223D
:103000009A704C4B0122DA714C4B1B6A4C4AA2FB62
:103010000312D20A4FF4616101FB02F29B1A7B603A
:10302000464B1B6A464AA2FB0323DB0ADAB2454B36
:103030009A747B68444AA2FB03235B09DAB2414BD2
:10304000DA747968404BA3FB01235A0913461B012C
:103050009B1A9B00CA1AD2B23A4B1A7512E004218D
:10306000324805F02DF80821304805F029F84021B4
:103070002F4805F025F880212D4805F021F82D4B2B
:1030800001229A70FFF7B2FB0346002B04D0012106
:10309000264805F015F803E00121244805F01EF844
:1030A0002A4B1B78062B13D1224BDB7A012B0CD138
:1030B000204B1B79002B08D1FFF7F0FB0346012BB7
:1030C00003D11C4B0122DA7002E01A4B0022DA70A5
:1030D0001A4B93F82830002B04D10221134804F036
:1030E000FDFF58E0134BDB78012B4ED1FFF7D6FBE9
:1030F0000346002B49D0154B5B689B0903F0010385
:10310000002B0DD1114B5B68DB0903F00103002B91
:1031100006D10E4B5B689B0A03F00103002B17D00E
:103120000221024804F0CCFF34E000BF0008014057
:1031300000100140FC240020000C01400C25002060
:10314000C5B3A291DC2400208988888850250020FE
:10315000134B5B681B0A03F00103002B06D1104BD5
:103160005B685B0A03F00103002B13D00D4B93F84F
:103170002930012B04D102210B4804F0A1FF09E002
:103180000221094804F0AAFF04E00221064804F0E5
:10319000A5FF00E000BF00BF2037BD4680BD00BFD7
:1031A000502500200C2500200008014080B485B087
:1031B00000AF78600C4B5B68FB600C4B1B680C4AE3
:1031C000A2FB03239B0C7A6802FB03F37B6000BF26
:1031D000054B5A68FB68D21A7B689A42F8D300BF45
:1031E0001437BD4680BC7047001000E098010020F5
:1031F00083DE1B4380B500AF00F0A4FA00F08EF828
:1032000000F0D8FA00BF80BD80B586B000AF78600E
:10321000002000F039FA0346002B1FD1002000F0F7
:1032200071F90346002B19D000237B6100233B6119
:10323000002000F039FA7861002000F05DFA386172
:103240007B69042B03D97B699AB27B689A803B69BE
:10325000002B03D03B699AB27B68DA80012000F032
:1032600013FA0346002B1FD1012000F04BF903464F
:10327000002B19D00023FB600023BB60012000F06D
:1032800013FAF860012000F037FAB860FB68042BED
:1032900003D9FB689AB27B681A80BB68002B03D005
:1032A000BB689AB27B685A8000BF1837BD4680BDA4
:1032B00080B582B000AF0121042005F0B5FB0121EB
:1032C000082005F0B1FB4FF48073BB800323BB7172
:1032D0001023FB713B1D19460E4804F001FE4FF40C
:1032E0008073BB800323BB711023FB713B1D194608
:1032F000094804F0F5FD4FF48071064804F0EEFE35
:103300004FF48071044804F0E9FE00BF0837BD4661
:1033100080BD00BF00080140000C014080B582B0B4
:1033200000AF0121082005F07FFB0121102005F0EE
:103330007BFB0121012005F077FB134A09210120C5
:1033400000F00CFA114A0C21022000F007FA4FF4A9
:103350000073BB800323BB714823FB713B1D1946DF
:103360000B4804F0BDFD4FF48053BB800323BB71B9
:103370004823FB713B1D1946064804F0B1FD00BF10
:103380000837BD4680BD00BF9933000849340008A6
:10339000000C01400010014080B584B000AF03462E
:1033A000FB7104F00FF8F860234B1B78002B38D02A
:1033B000FB79002B38D1214B1B78002B20D01F4BE1
:1033C0001B78013B002B00DA0733DB101C4AD25C70
:1033D0005200D1B21A4AD1541A4B1B68FA68D31A58
:1033E000322B0DD9154B1B78013B002B00DA07332C
:1033F000DB10134AD25C42F00102D1B2104AD15420
:103400000E4B1B780133DAB20C4B1A700B4B1B7846
:10341000282B09D9084B00221A70084B00221A7079
:1034200002E0064B00221A70064AFB68136000BFD8
:103430001037BD4680BD00BFDC020020DE02002048
:10344000D0020020E002002080B584B000AF034627
:10345000FB7103F0B7FFF860264B5B78002B3ED082
:10346000FB79002B3ED1244B1B78002B26D0224B1E
:103470001B78013B002B00DA0733DB101F4A1A448C
:1034800052795200D1B21D4A13440A465A711C4B5C
:103490001B68FA68D31A322B10D9174B1B78013BE3
:1034A000002B00DA0733DB10144A1A44527942F039
:1034B0000102D1B2114A13440A465A710E4B1B78CD
:1034C0000133DAB20C4B1A700B4B1B78282B09D93D
:1034D000084B00225A70084B00221A7002E0064B7B
:1034E00000221A70064AFB68136000BF1037BD4601
:1034F00080BD00BFDC020020E4020020D0020020DA
:10350000E802002080B485B000AF0346FB71FA7971
:103510001B4913469B0013440B441978FA79184849
:1035200013469B001344034401331B780B44D9B268
:10353000FA79134813469B001344034402331B7863
:103540000B44D9B2FA790E4813469B001344034446
:1035500003331B780B44FB73FA79094913469B002C
:1035600013440B4404331B78FA7B9A420CBF0123AB
:103570000023DBB218461437BD4680BC704700BF3D
:10358000D002002080B584B000AF0346FB71FB7908
:10359000002B02D0012B34D066E04FF40073BB81C6
:1035A0000323BB731023FB7307F10C031946314847
:1035B00004F096FC4FF400712E4804F08FFD4FF498
:1035C000FA70FFF7F3FD4FF400712A4804F078FD1C
:1035D0002820FFF7EBFD4FF40073BB810323BB737F
:1035E0004823FB7307F10C031946224804F078FCCA
:1035F000214B01221A7005220021204806F039FAD9
:1036000033E04FF48053BB810323BB731023FB7360
:1036100007F10C0319461A4804F062FC4FF480517C
:10362000174804F05BFD4FF4FA70FFF7BFFD4FF44D
:103630008051134804F044FD2820FFF7B7FD4FF4F4
:103640008053BB810323BB734823FB7307F10C0337
:1036500019460B4804F044FC074B01225A7005221E
:103660000021084806F005FA00BF00BF1037BD462C
:1036700080BD00BF000C0140DC020020D002002011
:1036800000100140D502002080B483B000AF034693
:10369000FB71FB79034AD35C18460C37BD4680BCEE
:1036A000704700BFDC02002080B485B000AF034645
:1036B000FB710023FB60FA790E4913469B0013440B
:1036C0000B4402331B78FB60FB681B02FB60FA793A
:1036D000084913469B0013440B4403331B781A46D6
:1036E000FB681343FB60FB6818461437BD4680BC7B
:1036F000704700BFD002002080B485B000AF034601
:10370000FB710023FB60FA790D4913469B001344BB
:103710000B441B78FB60FB681B02FB60FA790849CD
:1037200013469B0013440B4401331B781A46FB6875
:103730001343FB60FB6818461437BD4680BC7047D6
:10374000D002002080B500AFC0220021024806F060
:1037500090F900BF80BD00BFEC02002080B483B0B0
:1037600000AF03463A60FB710B46BB71BA79104952
:1037700013465B0013449B000B44FA791A70BA7924
:103780000B4913465B0013449B000B4404333A6817
:103790001A60BA79064913465B0013449B000B4438
:1037A000083301221A7000BF0C37BD4680BC704739
:1037B000EC02002080B586B000AF00237B610023BF
:1037C000FB740A237B730023BB730123FB73002369
:1037D000FB745BE0FA7C384913465B0013449B00A2
:1037E0000B4408331B78012B4DD1FA7C3249134628
:1037F0005B0013449B000B4404331B68002B42D036
:10380000FB7C012202FA03F31A467B6913437B61B6
:10381000FB7C092B02D928233B7322E0FB7C042B81
:1038200002D917233B731CE0FB7C042B02D10A2333
:103830003B7316E0FB7C032B02D109233B7310E0A2
:10384000FB7C022B02D108233B730AE0FB7C012B9B
:1038500002D107233B7304E0FB7C002B01D106233C
:103860003B7307F10C03184603F052FEFA7C124931
:1038700013465B0013449B000B441B78FA7C1146F3
:10388000184604F039FCFB7C0133FB74FB7C0F2BE6
:10389000A0D97B69002B0BD07B697B6000233B7236
:1038A00010237B720123BB723B1D184604F02EFAD5
:1038B00000BF1837BD4680BDEC02002080B584B043
:1038C00000AF0346FB710023FB60FA792B491346D6
:1038D0005B0013449B000B4408331B78012B48D139
:1038E000FA79264913465B0013449B000B440433CA
:1038F0001B68002B3DD0FA79204913465B00134426
:103900009B000B441B78012B07D0022B08D0002B07
:1039100000D008E01A4BFB6005E01A4BFB6002E0A8
:10392000194BFB6000BFFB68002B22D0FB79012202
:1039300002FA03F39BB21946F86804F08DFB0346C4
:10394000012B0BD1FA790D4913465B0013449B0000
:103950000B4404331B68012098470AE0FA790749B1
:1039600013465B0013449B000B4404331B68002088
:10397000984700BF1037BD4680BD00BFEC02002055
:1039800000080140000C01400010014080B500AF6C
:10399000012004F02DFA0346002B02D0012004F090
:1039A0004BFA0020FFF78AFF00BF80BD80B500AF53
:1039B000022004F01DFA0346002B02D0022004F07E
:1039C0003BFA0120FFF77AFF00BF80BD80B500AF52
:1039D000042004F00DFA0346002B02D0042004F06A
:1039E0002BFA0220FFF76AFF00BF80BD80B582B0CE
:1039F00000AF0023FB714FF4806004F0F9F9034637
:103A0000002B06D00A23FB714FF4806004F014FAF7
:103A100044E04FF4006004F0EBF90346002B06D0BD
:103A20000B23FB714FF4006004F006FA36E04FF40C
:103A3000805004F0DDF90346002B06D00C23FB7107
:103A40004FF4805004F0F8F928E04FF4005004F0EF
:103A5000CFF90346002B06D00D23FB714FF4005025
:103A600004F0EAF91AE04FF4804004F0C1F903468B
:103A7000002B06D00E23FB714FF4804004F0DCF9DC
:103A80000CE04FF4004004F0B3F90346002B05D0DE
:103A90000F23FB714FF4004004F0CEF9FB79184678
:103AA000FFF70CFF00BF0837BD4680BD80B582B070
:103AB00000AF0023FB71202004F09AF90346002B8D
:103AC00005D00523FB71202004F0B6F932E0402038
:103AD00004F08EF90346002B05D00623FB7140202D
:103AE00004F0AAF926E0802004F082F90346002BB6
:103AF00005D00723FB71802004F09EF91AE04FF4F3
:103B0000807004F075F90346002B06D00823FB7182
:103B10004FF4807004F090F90CE04FF4007004F062
:103B200067F90346002B05D00923FB714FF40070A1
:103B300004F082F9FB791846FFF7C0FE00BF083792
:103B4000BD4680BD80B582B000AF0121082004F0E1
:103B50006BFF01214FF4001004F084FF4023BB8071
:103B60000323BB711C23FB713B1D1946314804F034
:103B7000B7F98023BB803B1D19462E4804F0B0F9ED
:103B800010233B7003237B700323BB700123FB7066
:103B90003B46184603F0BCFC11233B7003237B70AB
:103BA0000323BB703B46184603F0B2FC0121012001
:103BB00004F01CFF204803F033FF204B204A1A601A
:103BC0001E4B00225A601D4B10229A601B4B4FF671
:103BD000FF72DA60194B00221A61184B80225A6179
:103BE000164B00229A61154B0022DA61134B00221A
:103BF0001A62124B4FF440525A62104B00229A62E2
:103C00000E490D4803F0C8FF0E4803F009FF0B49A9
:103C10000C4803F0C1FF01220221074804F016F806
:103C200001220221074804F011F800BF0837BD4601
:103C300080BD00BF000C01406C000240A4250020A4
:103C4000105400408000024080B584B000AFF8609E
:103C5000B9607A607B68002B0DD10F4AFB68536016
:103C60000D4B10229A600C4ABB68D3600A490B487E
:103C700003F092FF0CE0084AFB685360064B0022F9
:103C80009A60054ABB68D3600349054803F084FF86
:103C900000BF1037BD4680BDA42500206C00024047
:103CA0008000024080B584B000AFFFF74BFF0023D7
:103CB000BB804BF6FF73FB80A0233B814FF48063F6
:103CC0007B814FF48043BB810A4B3B6001210A4852
:103CD00004F016FB3B461946074804F04FFA012151
:103CE000054804F02DFB054BA0221A8000BF1037B9
:103CF000BD4680BDE093040000540040AC030020AA
:103D000080B584B000AFF8600B467A607B81A54A2D
:103D10007B681360A44B4FF420421A600AE0A24B68
:103D20001B685A1EA0490A60002B03D100F090FCCA
:103D3000034632E14FF400319C4804F00DFC034689
:103D4000002BECD10121994804F03AFB964B4FF43B
:103D500080521A600AE0944B1B685A1E92490A600E
:103D6000002B03D100F074FC034616E190498F4804
:103D700004F0C2FB0346002BEDD08E4B1B889BB298
:103D8000DBB200221946894804F098FB864B4FF4B9
:103D900080521A600AE0844B1B685A1E82490A60EE
:103DA000002B03D100F054FC0346F6E082497F4823
:103DB00004F0A2FB0346002BEDD07B891B0A9BB2CB
:103DC000DBB21946794804F05BFB774B4FF4805225
:103DD0001A600AE0744B1B685A1E73490A60002B74
:103DE00003D100F035FC0346D7E074496F4804F076
:103DF00083FB0346002BEDD07B89DBB219466B4871
:103E000004F03EFB684B4FF480521A600AE0664BA8
:103E10001B685A1E64490A60002B03D100F018FC8D
:103E20000346BAE06649614804F096FB0346002B5E
:103E3000EDD001215D4804F0C3FA5B4B4FF4805292
:103E40001A600AE0584B1B685A1E57490A60002B3B
:103E500003D100F0FDFB03469FE05549534804F0B1
:103E60004BFB0346002BEDD0524B1B889BB2DBB2C1
:103E7000012219464D4804F021FB7B681B88012B69
:103E800064D8494B4FF480521A600AE0464B1B68D5
:103E90005A1E45490A60002B03D100F0D9FB0346A6
:103EA0007BE04849414804F057FB0346002BEDD026
:103EB00000213E4804F0C4FA00F0CEFB3B4B1B8BC4
:103EC00001213A4804F09CFA00F0CEFB364B4FF447
:103ED00080521A600AE0344B1B685A1E32490A604D
:103EE000002B03D100F0B4FB034656E036492F48BF
:103EF00004F032FB0346002BEDD02C4804F0D0FA3E
:103F000003461A46FB681A707B681B88013B9AB20D
:103F10007B681A80244B4FF480521A600AE0224BCF
:103F20001B685A1E20490A60002B03D100F090FB49
:103F3000034632E01D4B1B889BB203F40073002B39
:103F4000EDD10121194804F07BFA25E0164B4FF41E
:103F500080521A600AE0144B1B685A1E12490A600C
:103F6000002B03D100F074FB034616E017490F48FD
:103F700004F0C2FA0346002BEDD0F8687B681B887A
:103F800001221946FFF760FE0121084804F0F8F904
:103F900001210F4803F03EFE002318461037BD46AE
:103FA00080BD00BFA0250020F40000200054004088
:103FB00001000300AC03002082000700840007001A
:103FC0000400001002000010400000100200030076
:103FD0008000024080B584B000AFF8600B467A6084
:103FE0007B81534A7B681360524B4FF420421A6026
:103FF0000AE0504B1B685A1E4E490A60002B03D141
:1040000000F026FB03468EE04FF400314A4804F0EE
:10401000A3FA0346002BECD10121474804F0D0F964
:10402000444B4FF480521A600AE0424B1B685A1E00
:1040300040490A60002B03D100F00AFB034672E0FE
:104040003E493D4804F058FA0346002BEDD0394B69
:104050004FF480521A603A4B1B889BB2DBB20022AD
:104060001946354804F02AFA324B4FF480521A6050
:104070000AE0304B1B685A1E2E490A60002B03D100
:1040800000F0E6FA03464EE02E492B4804F034FADD
:104090000346002BEDD07B891B0A9BB2DBB219468D
:1040A000254804F0EDF9234B4FF480521A600AE0E2
:1040B000204B1B685A1E1F490A60002B03D100F0D9
:1040C000C7FA03462FE020491B4804F015FA0346BF
:1040D000002BEDD07B89DBB21946174804F0D0F9EC
:1040E000144B4FF480521A600AE0124B1B685A1EA0
:1040F00010490A60002B03D100F0AAFA034612E02F
:1041000011490D4804F0F8F90346002BEDD0F8688A
:104110007B681B7800221946FFF796FD01210B48AA
:1041200003F078FD002318461037BD4680BD00BF60
:104130009C250020F40000200054004001000300F2
:10414000AC03002082000700840007006C000240DE
:1041500080B584B000AF78600B467B8013463B800F
:104160000023FB730023BB7300237B7300237B813D
:104170007B8803F01F037B817B89DBB2C3F12003C3
:104180007B733B885B099BB2FB733B88DBB203F01C
:104190001F03BB737B89002B70D1FB7B002B44D1A9
:1041A000984ABB7B13707B88964A19467868FFF75C
:1041B00011FF954B4FF420421A6009E0924B1B68A7
:1041C0005A1E91490A60002B02D100F041FA51E1D8
:1041D0008C4B1B78DBB2002BF0D100F053F949E196
:1041E000884B20221A707B88864A19467868FFF728
:1041F000F1FE854B4FF420421A6009E0824B1B68A8
:104200005A1E81490A60002B02D100F021FA31E1E7
:104210007C4B1B78DBB2002BF0D100F033F97B88AC
:1042200020337B807B6820337B60FB7B5A1EFA73D4
:10423000002BD5D1BB7B002B00F01C81714ABB7BCE
:1042400013707B886F4A19467868FFF7C3FE6E4B80
:104250004FF420421A6009E06B4B1B685A1E6A49F2
:104260000A60002B02D100F0F3F903E1654B1B78E3
:10427000DBB2002BF0D100F005F9FBE0FB7B002B5B
:104280006DD17B7B9BB23A889A4248D95D4A7B7B51
:1042900013707B885B4A19467868FFF79BFE5A4B80
:1042A0004FF420421A6009E0574B1B685A1E5649CA
:1042B0000A60002B02D100F0CBF9DBE0514B1B78F8
:1042C000DBB2002BF0D100F0DDF83B88DAB27B7B6B
:1042D000D31ADAB24B4B1A707B7B7A68D0187B7B8F
:1042E0009AB27B8813449BB2464A1946FFF772FE86
:1042F000454B4FF420421A6009E0434B1B685A1E9D
:1043000041490A60002B02D100F0A2F9B2E03D4B16
:104310001B78DBB2002BF0D100F0B4F8AAE0394AE8
:10432000BB7B13707B88374A19467868FFF752FECB
:10433000354B4FF420421A6009E0334B1B685A1E7C
:1043400031490A60002B02D100F082F992E02D4B36
:104350001B78DBB2002BF0D100F094F88AE07B7B75
:104360009BB23A88D31A3B803B885B099BB2FB73B4
:104370003B88DBB203F01F03BB737B7B002B52D067
:10438000204A7B7B13707B881E4A19467868FFF7AA
:1043900021FE1D4B4FF420421A6009E01A4B1B68A6
:1043A0005A1E19490A60002B02D100F051F961E050
:1043B000144B1B78DBB2002BF0D100F063F87B7B51
:1043C0009AB27B8813447B807B7B7A6813447B6042
:1043D00029E00C4B20221A707B880A4A194678681B
:1043E000FFF7F8FD084B4FF420421A600EE0064B31
:1043F0001B685A1E04490A60002B07D100F028F9F7
:1044000038E000BFD0250020F40000201B4B1B78B3
:10441000DBB2002BEBD100F035F87B8820337B80BA
:104420007B6820337B60FB7B5A1EFA73002BD0D154
:10443000BB7B002B1ED0114ABB7B13707B880F4ABD
:1044400019467868FFF7C6FD0D4B4FF420421A60FD
:1044500009E00B4B1B685A1E09490A60002B02D168
:1044600000F0F6F806E0054B1B78DBB2002BF0D12C
:1044700000F008F81037BD4680BD00BFD0250020F1
:10448000F400002080B582B000AF0023FB80002341
:104490003B603A4B4FF420421A600AE0374B1B68EE
:1044A0005A1E36490A60002B03D100F0D1F80346AA
:1044B00060E04FF40031324804F04EF80346002B20
:1044C000ECD101212E4803F07BFF2C4B4FF480529E
:1044D0001A600AE0294B1B685A1E28490A60002B03
:1044E00003D100F0B5F8034644E02649244804F01F
:1044F00003F80346002BEDD0234B1B889BB2DBB2A5
:10450000002219461E4803F0D9FF1C4B4FF42042ED
:104510001A601B4B9B8A9BB2FB80184B1B685A1E70
:1045200016490A60002B03D100F092F8034621E0FF
:10453000FB889BB21A4640F202431340002BE8D09E
:10454000FB889BB203F00203002B07D00C4B1B8BA4
:1045500001210B4803F054FF00230BE00B490848EE
:1045600004F02CF83B685A1C3A60962BA9D100F055
:104570006FF8034618460837BD4680BDF40000209A
:104580000054004001000300AC03002000040010B0
:1045900080B500AF4FF4001003F076FB0346002B0C
:1045A00028D00021144803F035FB4FF4801003F0AD
:1045B00093FB124B4FF420421A6008E00F4B1B682C
:1045C0005A1E0E490A60002B01D100F041F80C4937
:1045D0000C4803F0C1FF0346002BEFD0012109482E
:1045E00003F00EFF074B9B8A064B1B8B064B1B6889
:1045F00000221A7000BF80BD6C000240F400002051
:1046000004000010005400409C25002080B500AF3D
:104610004FF0007003F038FB0346002B0FD0012150
:10462000084803F0EDFE0021074803F0F3FA4FF0CD
:10463000807003F051FB054B1B6800221A8000BFFD
:1046400080BD00BF0054004080000240A025002033
:1046500080B400AFFEE700BF80B400AF72B600BF09
:10466000BD4680BC704700BF80B400AF62B600BFDB
:10467000BD4680BC704700BF80B584B000AF034624
:10468000FB800123FB8107F10E02F98807F10D037E
:104690001846FFF735FB00BFFB899BB2002BFBD10F
:1046A0007B7B18461037BD4680BD00BF80B584B007
:1046B00000AF03460A46FB801346BB80BB88DBB2D3
:1046C0003B73BB881B0A9BB2DBB27B73F98807F193
:1046D0000C0302221846FFF73BFD00BF1037BD4612
:1046E00080BD00BF80B582B000AF03460A46FB80A4
:1046F00013467B71F9887B1D01221846FFF728FDC0
:1047000000BF0837BD4680BD80B582B002AF294BDF
:104710000093002301220821274800F05FF8024699
:10472000264B1A60264B0093002320221021254897
:1047300000F054F80246244B1A60244B00930023E7
:10474000042208211C4800F049F80246204B1A6058
:10475000204B0093002302220821174800F03EF866
:1047600002461D4B1A60154B1B6840F6B8324FF4D9
:10477000FA61184600F090F8134B1B6840F6B83207
:104780004FF4FA61184600F087F8114B1B6840F6A9
:10479000B8324FF4FA61184600F07EF80E4B1B68F1
:1047A00040F6B8324FF4FA61184600F075F800BFD1
:1047B000BD4680BD89100008000C0140E0250020A6
:1047C000ED10000800100140D4250020551100080C
:1047D000D8250020BD110008DC25002080B586B05A
:1047E00000AFF860B96011461A460B46FB801346CD
:1047F0007B71284B1B8D092B01D9002345E0182024
:1048000005F024F903467B617B69002B01D100236D
:104810003BE07B69FA681A607B69FA889A807B7949
:10482000002B14BF01230023DBB21A467B699A7167
:104830007B693A6A9A607B6900225A747B694FF4FB
:104840007A729A827B6940F2DC52DA827B690522B5
:104850005A820121B86804F0E7F8FB883B82032301
:10486000BB742823FB7407F110031946F86803F0A2
:1048700037FB084B1B8D5A1C91B2064A118519460D
:10488000044A7B6942F821307B6918461837BD46D7
:1048900080BD00BFB003002080B483B000AF78605B
:1048A0000B467B8013463B807B687A889A827B68C4
:1048B0003A88DA827B6818460C37BD4680BC704760
:1048C00080B586B000AF786039600023BB753B6867
:1048D0001B88052B6CD17B6801331B789BB21B02B4
:1048E000BB827B6802331B789AB2BB8A1343BB82BC
:1048F000BB8A0133BB827B6803331B789BB21B02EC
:104900007B827B6804331B789AB27B8A13437B8259
:104910007B8A002B49D07B8AB3F5FA6F45D27B683E
:10492000FB603B6800221A80FB685A1CFA60012277
:104930001A703B681B8801339AB23B681A807B8AE5
:1049400003F00703002B06D07B8ADB089BB2DBB2A7
:104950000133FB7503E07B8ADB089BB2FB75FB68C8
:104960005A1CFA60FA7D1A703B681B8801339AB2B0
:104970003B681A807A8AB98A0023F868FDF76AF9D9
:104980000346FB72FB7A002B06D0FB7A184600F038
:104990008BFB0346BB750DE03B681A88FB7D9BB221
:1049A00013449AB23B681A8004E00323BB7501E00C
:1049B0000323BB75BB7D18461837BD4680BD00BFBD
:1049C00080B584B000AF786039600023FB733B682A
:1049D0001B88052B40D17B6801331B789BB21B02DF
:1049E000BB817B6802331B789AB2BB891343BB81BE
:1049F000BB890133BB817B6804331B78002B28D132
:104A00007B6803331B78FF2B04D07B6803331B7850
:104A1000002B1ED100237B727B6803331B78FF2B96
:104A200002D101233B7201E000233B72B98907F1F7
:104A3000080001230122FDF70DF90346FB72FB7A02
:104A4000002B0BD0FB7A184600F02EFB0346FB73BD
:104A500004E00323FB7301E00323FB73FB7B184695
:104A60001037BD4680BD00BF80B584B000AF786010
:104A700039600023BB733B681B88052B54D97B68C6
:104A800001331B789BB21B02BB817B6802331B780E
:104A90009AB2BB891343BB81BB890133BB817B685D
:104AA00003331B789BB21B027B817B6804331B782A
:104AB0009AB27B8913437B817B685B797B727B89AC
:104AC00003F00703002B06D07B89DB089BB2DBB227
:104AD0000133FB7303E07B89DB089BB2FB737B89AB
:104AE000002B1ED07B89B3F5F66F1AD8FA7B7B7A40
:104AF0009A4216D17B68981D7A89B9890123FDF7FE
:104B0000A9F803463B723B7A002B06D03B7A184645
:104B100000F0CAFA0346BB7308E03B6805221A801E
:104B200004E00323BB7301E00323BB73BB7B184684
:104B30001037BD4680BD00BF80B586B000AF78603D
:104B400039600023BB753B681B88052B6CD17B68E3
:104B500001331B789BB21B02BB827B6802331B783C
:104B60009AB2BB8A1343BB82BB8A0133BB827B6888
:104B700003331B789BB21B027B827B6804331B7858
:104B80009AB27B8A13437B827B8A002B49D07B8A33
:104B9000B3F5FA6F45D27B68FB603B6800221A8050
:104BA000FB685A1CFA6002221A703B681B880133AA
:104BB0009AB23B681A807B8A03F00703002B06D069
:104BC0007B8ADB089BB2DBB20133FB7503E07B8A97
:104BD000DB089BB2FB75FB685A1CFA60FA7D1A7001
:104BE0003B681B8801339AB23B681A807A8ABB8A79
:104BF0001946F868FDF742F80346FB72FB7A002B72
:104C000006D0FB7A184600F04FFA0346BB750DE05C
:104C10003B681A88FB7D9BB213449AB23B681A80AA
:104C200004E00323BB7501E00323BB75BB7D18467D
:104C30001837BD4680BD00BF80B584B000AF786036
:104C400039600023FB733B681B88052B22D17B68EE
:104C500001331B789BB21B02BB817B6802331B783C
:104C60009AB2BB891343BB81BB890133BB817B688B
:104C7000D81CB98901230122FCF774FF0346FB729B
:104C8000FB7A002B08D0FB7A184600F00DFA034699
:104C9000FB7301E00323FB73FB7B18461037BD4613
:104CA00080BD00BF80B584B000AF7860396000235C
:104CB000FB733B681B88052B46D97B6801331B7847
:104CC0009BB21B02BB817B6802331B789AB2BB8903
:104CD0001343BB81BB890133BB817B6803331B78E2
:104CE0009BB21B027B817B6804331B789AB27B8961
:104CF00013437B817B685B797B727B89002B20D09F
:104D00007B89782B1DD87B89DBB25B00DBB27A7A9A
:104D10009A4216D17B68981D7A89B9890123FCF7DC
:104D200021FF03463B723B7A002B06D03B7A1846A4
:104D300000F0BAF90346FB7308E03B6805221A80CD
:104D400004E00323FB7301E00323FB73FB7B1846A2
:104D50001037BD4680BD00BF80B586B000AF78601B
:104D600039600023FB753B681B88052B5CD17B6891
:104D700001331B789BB21B02BB827B6802331B781A
:104D80009AB2BB8A1343BB82BB8A0133BB827B6866
:104D900003331B789BB21B027B827B6804331B7836
:104DA0007B827B8A002B3CD07B8A7D2B39D87B6829
:104DB000FB603B6800221A80FB685A1CFA600322E1
:104DC0001A703B681B8801339AB23B681A80FB68F3
:104DD0005A1CFA607A8AD2B25200D2B21A703B6878
:104DE0001B8801339AB23B681A807A8AB98A0023F9
:104DF000F868FCF7B7FE0346FB72FB7A002B06D07F
:104E0000FB7A184600F050F90346FB750EE03B684C
:104E10001A887B8A5B009BB213449AB23B681A8063
:104E200004E00323FB7501E00323FB75FB7D1846BB
:104E30001837BD4680BD00BF80B586B000AF786032
:104E400039600023FB753B681B88092B40F2998071
:104E50007B6801331B789BB21B02BB827B680233E9
:104E60001B789AB2BB8A1343BB82BB8A0133BB82D5
:104E70007B6803331B789BB21B027B827B68043305
:104E80001B789AB27B8A13437B827B6805331B783D
:104E90009BB21B023B827B6806331B789AB23B8A2B
:104EA00013433B823B8A01333B827B6807331B7889
:104EB0009BB21B02FB817B6808331B789AB2FB898B
:104EC0001343FB817B685B7A7B737B8A002B56D014
:104ED0007B8A7D2B53D8FB89002B50D0FB89792B03
:104EE0004DD8FB895A007B7B9A4248D17B6803F1FD
:104EF0000A00FA89398A0123FCF734FE0346BB75A0
:104F0000BB7D002B31D17B68BB603B6800221A80DF
:104F1000BB685A1CBA6017221A703B681B880133A1
:104F20009AB23B681A80BB685A1CBA607A8AD2B2BD
:104F30005200D2B21A703B681B8801339AB23B68A8
:104F40001A807A8AB98A0023B868FCF70BFE0346F8
:104F5000BB75BB7D002B08D13B681A887B8A5B0040
:104F60009BB213449AB23B681A80BB7D002B08D0D9
:104F7000BB7D184600F098F80346FB7501E003235B
:104F8000FB75FB7D18461837BD4680BD80B586B0E1
:104F900000AF786039600023FB753B681B88052BE8
:104FA0005FD17B6801331B789BB21B02BB827B689D
:104FB00002331B789AB2BB8A1343BB82BB8A01338C
:104FC000BB827B6803331B789BB21B027B827B68AE
:104FD00004331B789AB27B8A13437B827B8A002B33
:104FE0003CD07B8A7C2B39D87B68FB603B680022F5
:104FF0001A80FB685A1CFA6004221A703B681B88EE
:1050000001339AB23B681A80FB685A1CFA607A8AAC
:10501000D2B25200D2B21A703B681B8801339AB2E6
:105020003B681A807A8ABB8A1946F868FCF78CFDBF
:105030000346FB72FB7A002B06D0FB7A184600F081
:1050400033F80346FB750EE03B681A887B8A5B00E9
:105050009BB213449AB23B681A8004E00323FB75A9
:1050600001E00323FB75FB7D18461837BD4680BD64
:1050700080B582B000AF786039607B68581C084BFF
:105080001B881A46074904F0E9FC054B1B880133CD
:105090009AB23B681A80002318460837BD4680BD87
:1050A000FC030020DC03002080B485B000AF034681
:1050B000FB71FB79012B06D0072B07D0002B08D101
:1050C0000023FB7308E00223FB7305E00623FB7358
:1050D00002E00423FB7300BFFB7B18461437BD4678
:1050E00080BC704780B584B000AF3B600346FB7165
:1050F0000B46BB7113467B710023FB73BB79002BFE
:1051000005D0BB79002B02D0BB79F72B02D9022343
:10511000FB733AE01F4ABB791370FB79002B21D156
:105120001D4B1E4A1A601E4B1E4A1A601E4B1F4A18
:105130001A601F4B1F4A1A601F4B00221A601F4B38
:105140001F4A1A601F4B204A1A60204B204A1A60DF
:10515000104B18783B7E79793A6800F041F90346A4
:10516000FB7301E00223FB73FB7B002B0DD100F0EE
:10517000F1FA0346002B02D10323FB7305E0154A25
:10518000FB791370144B01221A70FB7B1846103701
:10519000BD4680BDFE0300200404002055540008D5
:1051A000080400207954000800040020FD54000881
:1051B0000C0400209154000810040020EC2500206D
:1051C000C1550008E42500206D560008E8250020A0
:1051D00005570008FF030020F800002080B582B0CA
:1051E00000AF0023FB71094B1B78012B06D1084B44
:1051F0001B689847054B00221A7001E00623FB71DB
:10520000FB7918460837BD4680BD00BFF800002076
:105210000404002080B582B000AF0023FB704B4B2C
:105220001B78002B01D006238CE0BB1C184600F035
:10523000B3FA0346012B40F08480BB78012B03D0E6
:10524000032B7BD0002B7CE0414B1B68414A424939
:10525000424898470346FB70FB78002B70D13F4BC8
:105260001A783F4B1B789A4203D03C4B1B78002B9B
:1052700066D1022000F07AFA374B1B681A78394B56
:105280001A70394B01221A7000237B601FE0374AE5
:105290007B6812F83330002B1DD0344A7B6812F83B
:1052A0003320304B1B789A420ED1304A7B68DB00AA
:1052B00013445B68284A12682649104698470346FB
:1052C0001A46294B1A7007E07B6801337B607B68C4
:1052D0000F2BDCDD00E000BF204B1B78002B2FD014
:1052E000214B1B78002B1DD01A4B00221A801A4B21
:1052F0001A68184B1B88591C88B216490880134439
:10530000184A127862F07F02D2B21A70124B1A68F1
:10531000104B1B88591C88B20E4908801344124A4E
:1053200012781A70124B1B680D4A10780A4A1168DD
:10533000084A128898470346FB7001E000BF00E06E
:1053400000BF002318460837BD4680BDF800002086
:105350000C0400201C040020180400201404002069
:10536000FE0300201E0400201F040020FC0000207B
:105370000004002080B485B000AF78600B467B80CD
:10538000FF23FB73FF23BB7313E07B685A1C7A6017
:105390001A78BB7B5340DBB2BB600F4ABB68134437
:1053A0001A78FB7B5340BB730C4ABB6813441B78D1
:1053B000FB737B885A1E7A80002BE6D1FB7B1B0295
:1053C0001AB2BB7B1BB213431BB29BB218461437F5
:1053D000BD4680BC704700BF64A9000864AA0008ED
:1053E00080B584B000AF3A601A460346FB710B46A5
:1053F000BB7113467B710023FB7372B67B79B8795E
:105400000822396800F020FA0346012B02D003235A
:10541000FB7316E03B68B3F5964F02D92323BB60BC
:1054200005E03B685B000A4AB2FBF3F3BB60BB6874
:105430009BB2184600F0DCFA0346012B01D003238F
:10544000FB7362B6FB7B18461037BD4680BD00BFBC
:10545000A07F170080B500AF72B6064B00221A700D
:105460000021012000F0B6F900F002FB62B600BF97
:1054700080BD00BF2104002080B500AF72B60021BE
:10548000002000F0A7F900F001FB62B600BF80BD6C
:1054900080B586B000AFF860B9607A600023FB7514
:1054A00072B6134B1B889BB2032B19D9104B1B8868
:1054B0009BB219460F48FFF75DFF0346002B0FD143
:1054C0000C4B1B78DAB2FB681A70094B1B889BB235
:1054D000033B9AB27B681A80BB68074A1A6001E0F6
:1054E0000523FB7562B6FB7D18461837BD4680BDA7
:1054F0002A040020F8250020F925002080B584B07A
:1055000000AF03463960FB711346BB800023FB7379
:1055100072B6264B1B78DBB2012B3FD13B68013BB7
:10552000234A1360234B01221A80214B1B68FA790E
:105530001A70204B1B889AB2BB8813449AB21D4B39
:105540001A801B4B1A681B4B1B889BB219461046CE
:10555000FFF710FF0346BB81164B1B889BB25A1CFA
:1055600091B2144A11801A46BB89D9B2124B995490
:10557000104B1B889BB25A1C91B20E4A11801A46DE
:10558000BB891B0A9BB2D9B20B4B99540B4B01221E
:105590001A700121002000F01DF901E00523FB73C2
:1055A00062B6FB7B18461037BD4680BD2104002043
:1055B0002404002028040020F825002020040020D6
:1055C00080B582B000AF0023FB71BB1D184600F010
:1055D000D3F9234B1B78DBB2032B3CD801A252F842
:1055E00023F000BFF55500080156000829560008B1
:1055F000FB55000800F03CFA2DE000F039FA2AE0F3
:10560000184B00221A80174B1B889BB25A1C91B270
:10561000144A11801A46B979134B9954104B02223F
:105620001A7000F025FA16E00E4B1B889BB2FF2B78
:105630000BD80C4B1B889BB25A1C91B2094A1180A3
:105640001A46B979084B995402E0054B03221A70A7
:1056500000F00EFA00BFFB7918460837BD4680BD42
:10566000210400202A040020F825002080B582B003
:1056700000AF0023FB711F4B1B78DBB2002B02D065
:10568000012B05D031E00021012000F0A3F82CE02F
:10569000194B1B889BB2002B13D0184B1B681B782F
:1056A000DBB2184600F056F9144B1B680133134A5D
:1056B0001360114B1B889BB2013B9AB20E4B1A80B0
:1056C00012E00F4B1B889BB203F04003002B0BD062
:1056D000032000F04BF80346FB710021012000F08D
:1056E00079F8044B00221A7000BFFB79184608377E
:1056F000BD4680BD20040020280400202404002092
:105700000048004080B582B000AF0023FB71104B11
:105710001B78DBB2022B09D0032B0DD0002B0CD150
:10572000002000F023F80346FB7106E0012000F0A2
:105730001DF80346FB7100E000BF00F0A7F9044B21
:1057400001221A70FB7918460837BD4680BD00BF9C
:105750002104002080B400AF034B00221A70012303
:105760001846BD4680BC70472D04002080B483B02D
:1057700000AF0346FB71064B01221A70054AFB7904
:105780001370012318460C37BD4680BC704700BF1C
:105790002D0400202C04002080B485B000AF786078
:1057A0000023FB73094B1B78002B08D0084B1A7899
:1057B0007B681A70054B00221A700123FB73FB7B78
:1057C00018461437BD4680BC704700BF2D0400202A
:1057D0002C04002080B582B000AF03460A46FB715E
:1057E0001346BB71FB79002B0BD04FF4805114484A
:1057F00002F074FC012240F22551124803F084FCAF
:1058000005E0002240F225510E4803F07DFCBB79F3
:10581000002B0BD04FF48051094802F051FC0122BB
:1058200040F22771074803F06FFC05E0002240F2C8
:105830002771044803F068FC00BF0837BD4680BDEF
:10584000000C01400048004080B588B000AF3960CE
:1058500011461A460346FB710B46BB7113467B711A
:1058600001214FF4802003F0FDF80121092003F00D
:10587000DBF84FF480633B831823FB760323BB766E
:1058800007F118031946314802F02AFB4FF4006370
:105890003B830423FB760323BB7607F118031946E9
:1058A0002A4802F01DFB27233B7700237B77002348
:1058B000BB770123FB7707F11C03184601F028FE94
:1058C0004FF480533B831023FB760323BB7607F111
:1058D000180319461D4802F003FB3B68BB60BB7907
:1058E000092B03D14FF48053BB8101E00023BB811E
:1058F0000023FB817B79012B06D0022B08D0002BE3
:105900000AD100233B820AE04FF4C0633B8206E0E9
:105910004FF480633B8202E000233B8200BF0C23F4
:105920007B820023BB8207F108031946084803F075
:1059300011FB01210120FFF74DFF0121044803F075
:10594000C3FB012318462037BD4680BD000C014033
:105950000048004080B582B000AF0346FB71FB7980
:105960009BB21946034803F017FC01231846083779
:10597000BD4680BD0048004080B582B000AF786071
:10598000054803F01BFC0346DAB27B681A7001235A
:1059900018460837BD4680BD0048004080B500AFBE
:1059A00040F225510F4803F019FC0346002B07D0A5
:1059B00040F225510B4803F06BFC0B4B1B689847DA
:1059C00040F22771074803F009FC0346002B07D07B
:1059D000064B1B68984740F22771024803F058FCB9
:1059E00000BF80BD00480040EC250020E4250020D9
:1059F00080B586B000AF0346FB800121042003F090
:105A000031F807F10803184603F0FEF940F2077376
:105A10003B81FB88013B9BB2BB810023FB810023C0
:105A20007B8107F108031946104803F071F9012141
:105A30000E4803F07FFA012201210C4803F01EFA00
:105A40001E233B7501237B750123BB750123FB7569
:105A500007F11403184601F05BFD0121034803F030
:105A6000EDF9012318461837BD4680BD00080040F7
:105A700080B500AF0021044803F024FA0121024858
:105A800003F0DCF900BF80BD0008004080B500AF26
:105A90000021024803F0D2F900BF80BD0008004099
:105AA00080B500AF0121074803F01AFA0346002B26
:105AB00006D00121034803F03DFA034B1B689847C9
:105AC00000BF80BD00080040E825002080B483B0FE
:105AD00000AF0346FB71084997F907305B09FA7973
